S00F00006F75742F6D61696E2E733139B9
S3180800000000200020D53F00080D0300081903000821030023
S318080000130829030008310300080000000000000000000054
S3180800002600000000000039030008450300080000000051D4
S318080000390300085D0300081D4000081D4000081D40000804
S3180800004C1D4000081D4000081D4000081D4000081D4000A2
S3180800005F081D4000081D4000081D4000081D4000081D4087
S3180800007200081D4000081D4000081D4000081D4000081DB4
S318080000854000081D400008000000000000000000000000AD
S31808000098000000001D4000081D4000081D4000081D4000BB
S318080000AB081D4000081D4000081D4000081D4000081D403B
S318080000BE00081D4000081D4000081D4000081D4000081D68
S318080000D14000081D4000081D4000081D4000081D40000832
S318080000E41D4000081D400008000000000000000000000031
S318080000F700000000000000000000000000000000000000E8
S3180800010A00000000000000000000000000001D4000081D52
S3180800011D4000080000000000000000000000000000000079
S3180800013000000000000000000000000000000000000000AE
S31808000143000000000000000000000000000000000000009B
S318080001560000000000000000000000000000000000000088
S318080001690000000000000000000000000000000000000075
S3180800017C0000000000000000000000000000000000000062
S3180800018F000000000000000000000000000000000000004F
S318080001A2000000000000000000000000000000000000003C
S318080001B50000000000000000000000000000000000000029
S30D080001C8000000005FF808F1D1
S309080001D0000000001D
S30D080001D45C0000680100000050
S318080001DC10B5054C237833B9044B13B10448AFF3008001E3
S318080001EF23237010BD6C0B002000000000D001002008B527
S31808000202064B1BB106480649AFF300800648036813B1057D
S318080002154B03B1984708BD00000000D0010020700B002099
S31808000228640B00200000000016202EA1ABBE2D48016800DA
S3180800023B2901D1324901608168C268002900D08D46002AC2
S3180800024E01D002F5807A00218B460F462548254A121A037B
S31808000261F056FA03F0BCFB152025A1ABBE2449002001B4EC
S318080002740B780131002B15D0202BF9D0222B01D0272B011F
S31808000287D11A0001E02022013902B401300B780131002B47
S3180800029A05D09A42F9D100224B1E1A70E5E76946020092A4
S318080002AD006A446B469A4206D9043A14681D6815601C60E6
S318080002C00433F6E76C460725AC43A54604000D00094800EF
S318080002D32802D0094803F0E6FA03F0F0F92000290000F0D7
S318080002E61CF903F0DAF9E40100206C0B0020740C0020A937
S318080002F9380008B5380008F4010020FF000000750C0020FA
S3180800030C80B400AFBD465DF8047B704780B400AFFEE70097
S3180800031FBF80B400AFFEE700BF80B400AFFEE700BF80B4BC
S3180800033200AFFEE700BF80B400AFBD465DF8047B70478066
S31808000345B400AFBD465DF8047B704780B400AFBD465DF86B
S31808000358047B704780B400AF044B1B685A1C034B1A60BD9E
S3180800036B465DF8047B704700BF6C0C002080B586B000AF2F
S3180800037EF860B9607A6000237B6100237B6123E09620005C
S31808000391F04EF9FB68002B06D07B694FF0804002211A464A
S318080003A400F0AEF9BB68002B06D07B694FF0804004211A5B
S318080003B74600F0A4F97B68002B06D07B694FF08040062164
S318080003CA1A4600F09AF97B6901337B617B69B3F5FA6FD76F
S318080003DDDB4FF4FA637B6123E0962000F022F9FB68002B56
S318080003F006D07B694FF0804002211A4600F082F9BB680022
S318080004032B06D07B694FF0804004211A4600F078F97B682B
S31808000416002B06D07B694FF0804006211A4600F06EF97B88
S3180800042969013B7B617B69002BD8DC002318461837BD469B
S3180800043C80BD00BF80B586B000AFF860B9607A6000237BA0
S3180800044F6100237B6123E0962000F0EAF8FB68002B06D03D
S318080004627B694FF0804002211A4600F04AF9BB68002B068C
S31808000475D07B694FF0804004211A4600F040F97B68002BF7
S3180800048806D07B694FF0804006211A4600F036F97B69010F
S3180800049B337B617B69B3F5FA6FD7DB002318461837BD46B7
S318080004AE80BD80B586B000AFF860B9607A6000237B614F3D
S318080004C1F4FA637B6123E0962000F0B1F8FB68002B06D037
S318080004D47B694FF0804002211A4600F011F9BB68002B0653
S318080004E7D07B694FF0804004211A4600F007F97B68002BBE
S318080004FA06D07B694FF0804006211A4600F0FDF87B6901D7
S3180800050D3B7B617B69002BD8DC002318461837BD4680BDE3
S3180800052080B500AF00F06CF800F070F800F004F903F056F4
S31808000533FA2E4804F0C1FF012000210022FFF77EFF00208C
S3180800054601210022FFF779FF002000210122FFF774FF0114
S318080005592000210022FFF7A7FF002001210022FFF7A2FF87
S3180800056C002000210122FFF79DFF002001210022FFF760BE
S3180800057FFF002000210122FFF75BFF012000210022FFF74E
S3180800059256FF002001210022FFF789FF002000210122FFAE
S318080005A5F784FF012000210022FFF77FFF0020002101227F
S318080005B8FFF742FF012000210022FFF73DFF002001210013
S318080005CB22FFF738FF002000210122FFF76BFF01200021BA
S318080005DE0022FFF766FF002001210022FFF761FFA4E7A496
S318080005F165000880B400AFBD465DF8047B704780B400AF28
S31808000604BD465DF8047B704780B500AF0548102104F0CC25
S31808000617FA0448032100224FF4805303F0FDFC80BD1810CF
S3180800062A02400010014080B485B000AF78600023FB6003AB
S3180800063DE000BFFB680133FB60FA687B689A42F7DB1437CD
S31808000650BD465DF8047B704780B584B000AFF860B9607AF8
S31808000663603B60F868B96804F0A1FA786803F02AFD786891
S3180800067600210022002303F095FD7868396803F05EFE7830
S3180800068968002103F05CFE786803F09DFD786803F0BDFD80
S3180800069C7868B96903F05EFE1037BD4680BD00BF80B584ED
S318080006AFB000AFF8607A603B600B46FB727868396804F0CB
S318080006C276FABB8BB8690321022203F0A8FCFB7AF8681973
S318080006D54604F041F8FB7AF8681946062203F0A7FEFB7A28
S318080006E8F8681946002204F0C5F8FB7AF868194603F0FC3C
S318080006FBFF1037BD4680BD00BF80B584B000AFF8600B46D8
S3180800070E7A60FB72FB7AF86819467A6804F0AFF81037BDCE
S318080007214680BD80B582B000AF7860786803F08BFD0837AC
S31808000734BD4680BD80B582B002AF4FF4FA6300931F4801B1
S31808000747214FF080420723FFF783FF1D4B00930223019319
S3180800075A4FF0804002211A4A0423FFF7A2FF174B00930441
S3180800076D2301934FF080400421154A0423FFF797FF124B21
S318080007800093082301934FF0804006210F4A0423FFF78CDE
S31808000793FF4FF0804002210022FFF7B2FF4FF08040042137
S318080007A60022FFF7ACFF4FF0804006210022FFF7A6FF4F3D
S318080007B9F08040FFF7B2FFBD4680BD1C10024000080140D1
S318080007CC1810024080B582B000AF03463960FB71FB794F7B
S318080007DFF0804019463A68FFF78DFF0837BD4680BD80B413
S318080007F283B000AF7860054A7B6843F0BF6343F40033D368
S31808000805600C37BD465DF8047B704700ED00E080B487B069
S3180800081800AF786000237B6100233B610F23FB607B68DB2F
S3180800082B78002B38D0264BDB68DB4303F4E0631B0A7B61F4
S3180800083E7B69C3F104033B617B69FA6822FA03F3FB607B30
S31808000851685B781A463B6902FA03F37B617B689B781A4623
S31808000864FB6813407A6913437B617B691B017B6116497BF2
S31808000877681B787A69D2B20B4483F80023124B7A68127848
S3180800088A5209D2B27968097801F01F01012000FA01F143AB
S3180800089DF822100EE00B4B7A6812785209D2B2796809781F
S318080008B001F01F01012000FA01F1203243F822101C37BD3A
S318080008C3465DF8047B704700BF00ED00E000E100E080B4C2
S318080008D683B000AF78603960074A3B6823F0604323F07F72
S318080008E90379680B4393600C37BD465DF8047B704700BF39
S318080008FC00ED00E080B483B000AF02460B46FA71BB71BB0D
S3180800090F79002B06D0094B094A1169FA790A431A6106E00B
S31808000922064B054A1169FA79D2430A401A610C37BD465DAA
S31808000935F8047B704700BF00ED00E080B483B000AF7860F9
S318080009487B68042B06D1094B084A126842F004021A6005CE
S3180800095BE0054B054A126822F004021A600C37BD465DF855
S3180800096E047B704700BF10E000E080B582B000AF78607A3B
S31808000981682F4B9A4208D10420012100F0F2FD0420002154
S3180800099400F0EEFD4EE07A68294B9A4208D10820012100E4
S318080009A7F0E5FD0820002100F0E1FD41E07A68244B9A42F8
S318080009BA08D11020012100F0D8FD1020002100F0D4FD34E6
S318080009CDE07A681E4B9A4208D12020012100F0CBFD2020CF
S318080009E0002100F0C7FD27E07A68194B9A4208D1402001BE
S318080009F32100F0BEFD4020002100F0BAFD1AE07A68134BB5
S31808000A069A4208D18020012100F0B1FD8020002100F0AD5C
S31808000A19FD0DE07A680E4B9A4209D14FF48070012100F09C
S31808000A2CA3FD4FF48070002100F09EFD0837BD4680BD00AB
S31808000A3FBF00080140000C01400010014000140140001883
S31808000A520140001C01400020014080B500AF01200121005D
S31808000A65F086FD0120002100F082FD80BD00BF80B489B0E3
S31808000A7800AF786039600023FB6100233B610023BB6100C0
S31808000A8B23FB6000237B610023BB603B68DB7803F00F0394
S31808000A9EFB613B68DB7803F01003002B04D03B689B78FA30
S31808000AB1691343FB613B681B88DBB2002B44D07B681B6891
S31808000AC47B610023BB6138E0BB69012202FA03F3FB603B0F
S31808000AD7681B881A46FB6813403B613A69FB689A4226D168
S31808000AEABB699B00FB60FB680F2202FA03F3BB60BB68DB32
S31808000AFD437A6913407B61FB68FA6902FA03F37A69134392
S31808000B107B613B68DB78282B05D1BB6901229A407B685A6B
S31808000B236108E03B68DB78482B04D1BB6901229A407B6826
S31808000B361A61BB690133BB61BB69072BC3D97B687A691ADD
S31808000B49603B681B88FF2B46D97B685B687B610023BB61DB
S31808000B5C3AE0BB690833012202FA03F3FB603B681B881A2F
S31808000B6F46FB6813403B613A69FB689A4227D1BB699B0034
S31808000B82FB60FB680F2202FA03F3BB60BB68DB437A69131F
S31808000B95407B61FB68FA6902FA03F37A6913437B613B68B3
S31808000BA8DB78282B05D1BB69083301229A407B685A613B7B
S31808000BBB68DB78482B05D1BB69083301229A407B681A615B
S31808000BCEBB690133BB61BB69072BC1D97B687A695A6024FE
S31808000BE137BD465DF8047B704700BF80B483B000AF786081
S31808000BF47B684FF6FF721A807B6802229A707B680422DAB9
S31808000C07700C37BD465DF8047B704700BF80B485B000AFB4
S31808000C1A78600B467B800023FB737B689A687B88134000C9
S31808000C2D2B02D00123FB7301E00023FB73FB7B1846143786
S31808000C40BD465DF8047B704780B483B000AF78607B689B99
S31808000C53689BB218460C37BD465DF8047B704700BF80B4A9
S31808000C6685B000AF78600B467B800023FB737B68DA687B34
S31808000C79881340002B02D00123FB7301E00023FB73FB7B08
S31808000C8C18461437BD465DF8047B704780B483B000AF7882
S31808000C9F607B68DB689BB218460C37BD465DF8047B704732
S31808000CB200BF80B483B000AF78600B467B807A887B681A29
S31808000CC5610C37BD465DF8047B704780B483B000AF7860EE
S31808000CD80B467B807A887B685A610C37BD465DF8047B7085
S31808000CEB4780B483B000AF786013460A467A807B707B7832
S31808000CFE002B03D07A887B681A6102E07A887B685A610CE9
S31808000D1137BD465DF8047B704700BF80B483B000AF78604F
S31808000D240B467B807A887B68DA600C37BD465DF8047B70B9
S31808000D374780B485B000AF78600B467B804FF48033FB60C7
S31808000D4A7B88FA681343FB607B68FA689A617A887B689AB3
S31808000D5D617B68FA689A617B689B69FB607B689B69FB6050
S31808000D701437BD465DF8047B704700BF80B485B000AF02B0
S31808000D83460B46FA71BB710023FB600C4B1B68FB60FA680C
S31808000D964FF680731340FB60FB791B01FA681343FB60BBF8
S31808000DA979FA681343FB60034BFA681A601437BD465DF8D0
S31808000DBC047B70470000014080B483B000AF0346FB7104D0
S31808000DCF4BFA791A600C37BD465DF8047B704700BF1C001F
S31808000DE2204280B487B000AF78600B46FB7000233B610021
S31808000DF523FB6000237B610023BB607B68002B03DA2E4BBE
S31808000E08DB697B6102E02C4B5B687B617B6803F470231B29
S31808000E1B0CBB607B689BB23B617B6803F44013B3F5401F8F
S31808000E2E0AD17B6923F070637B61214B214A526822F0700F
S31808000E41625A6021E07B6803F48013002B0ED0BB680322B5
S31808000E5402FA03F3FB60FB68DB437A6913407B617B694376
S31808000E67F070637B610DE07B685B0D1B013A6902FA03F3E2
S31808000E7ADB437A6913407B617B6943F070637B61FB7800EE
S31808000E8D2B08D07B685B0D1B013A6902FA03F37A6913430C
S31808000EA07B617B68002B03DA054B7A69DA6102E0034B7A52
S31808000EB3695A601C37BD465DF8047B70470000014090B495
S31808000EC684B000AF02460B46FA71BB710023FB60BB790343
S31808000ED9F003039B000F2202FA03F3FB60154BBA799208BC
S31808000EECD2B21349B8798008C0B2023051F82000F968C915
S31808000EFF430140023243F822100C4BBA799208D2B20A49B2
S31808000F12B8798008C0B2023051F82000FC79B97901F0035D
S31808000F2501890004FA01F10143023243F822101037BD4602
S31808000F3890BC70470000014080B483B000AF7860034B7A9E
S31808000F4B681A600C37BD465DF8047B7047DC00204280B460
S31808000F5E00AF134B134A126842F001021A60104A104B59D1
S31808000F7168104B0B4053600D4A0D4B1B6823F0847323F44B
S31808000F8480331360094B094A126822F480221A60064B067C
S31808000F974A526822F4FE025A60034B4FF41F029A60BD46B6
S31808000FAA5DF8047B7047001002400000FFF880B483B000EB
S31808000FBDAF7860134B134A126822F480321A60104B104A60
S31808000FD0126822F480221A607B68B3F5803F03D0B3F5800F
S31808000FE32F07D00DE0094B094A126842F480321A6006E091
S31808000FF6064B054A126842F4A0221A6000BF0C37BD465DEC
S31808001009F8047B704700BF0010024080B582B000AF00234E
S3180800101C3B600023FB710023BB71312000F010FB0346BBEA
S3180800102F713B6801333B603B68B3F5A06F02D0BB79002B32
S31808001042F0D0312000F001FB0346002B02D00123FB7101B9
S31808001055E00023FB71FB7918460837BD4680BD80B485B051
S3180800106800AF0346FB710023FB600A4B1B68FB60FB6823CC
S3180800107BF0F803FB60FB79DB00FA681343FB60044BFA68FB
S3180800108E1A601437BD465DF8047B704700BF00100240805D
S318080010A1B483B000AF0346FB71044BFA791A600C37BD4661
S318080010B45DF8047B704700BF0000424280B485B000AF78BD
S318080010C76039600023FB600A4B5B68FB60FB6823F47C1315
S318080010DAFB607A683B681343FA681343FB60034BFA685AA2
S318080010ED601437BD465DF8047B70470010024080B483B0F0
S3180800110000AF0346FB71044BFA791A600C37BD465DF8048F
S318080011137B704700BF6000424280B485B000AF78600023D3
S31808001126FB60094B5B68FB60FB6823F00303FB60FA687B27
S31808001139681343FB60044BFA685A601437BD465DF8047BEF
S3180800114C704700BF0010024080B400AF054B5B68DBB20334
S3180800115FF00C03DBB21846BD465DF8047B704700BF001028
S31808001172024080B485B000AF78600023FB60094B5B68FB9A
S3180800118560FB6823F0F003FB60FA687B681343FB60044BE0
S31808001198FA685A601437BD465DF8047B704700BF00100270
S318080011AB4080B485B000AF78600023FB60094B5B68FB6003
S318080011BEFB6823F4E063FB60FA687B681343FB60044BFAB9
S318080011D1685A601437BD465DF8047B704700BF00100240F1
S318080011E480B485B000AF78600023FB60094B5B68FB60FB0F
S318080011F76823F46053FB607B68DB00FA681343FB60034B2B
S3180800120AFA685A601437BD465DF8047B70470010024080FC
S3180800121DB483B000AF02460B46FA71BB71BB79002B08D0B3
S318080012300B4B0B4A1278D1B2FA790A43D2B21A7009E00727
S318080012434B064A1278D1B2FA79D243D2B20A40D2B21A707E
S318080012560C37BD465DF8047B70470910024080B483B000E4
S31808001269AF7860034B7A681A600C37BD465DF8047B704762
S3180800127CD800424280B485B000AF78600023FB60094B5BD8
S3180800128F68FB60FB6823F44043FB60FA687B681343FB602D
S318080012A2044BFA685A601437BD465DF8047B704700BF0028
S318080012B510024080B483B000AF0346FB710C4B00221A70F8
S318080012C80A4B00221A70FB79012B02D0042B04D007E006A2
S318080012DB4B01221A7003E0044B05221A7000BF0C37BD4612
S318080012EE5DF8047B70472010024080B483B000AF0346FB88
S3180800130171044BFA791A600C37BD465DF8047B704700BF8E
S318080013148004424280B483B000AF7860054B054A116A7A2E
S31808001327680A431A620C37BD465DF8047B704700BF0010D4
S3180800133A024080B483B000AF0346FB71044BFA791A600C3D
S3180800134D37BD465DF8047B704700BF3C04424280B487B0CC
S3180800136000AF786000237B6100233B610023FB600023BBCB
S31808001373604D4B5B6803F00C037B617B69042B07D0082BA3
S3180800138609D0002B34D17B68484A1A6034E07B68464A1AAD
S318080013996030E0434B5B6803F470133B61414B5B6803F416
S318080013AC8033FB603B699B0C02333B61FB68002B06D13B56
S318080013BF693C4A02FB03F27B681A6013E0374B5B6803F4A0
S318080013D20033002B06D03B69364A02FB03F27B681A60064D
S318080013E5E03B69314A02FB03F27B681A6004E003E07B68EF
S318080013F82D4A1A6000BF2B4B5B6803F0F0037B617B691B2A
S3180800140B097B612A4A7B6913441B78DBB2BB607B681A688C
S3180800141EBB68DA407B685A60214B5B6803F4E0637B617B13
S31808001431691B0A7B61204A7B6913441B78DBB2BB607B686D
S318080014445A68BB68DA407B689A60174B5B6803F460537B61
S31808001457617B69DB0A7B61164A7B6913441B78DBB2BB6098
S3180800146A7B685A68BB68DA407B68DA600D4B5B6803F44010
S3180800147D437B617B699B0B7B610D4A7B6913441B78DBB217
S31808001490BB607B68DA68BB68B2FBF3F27B681A611C37BDD8
S318080014A3465DF8047B704700BF0010024000127A000009B1
S318080014B63D00F40200200403002080B483B000AF78600BA2
S318080014C946FB70FB78002B06D0094B084A51697A680A434E
S318080014DC5A6106E0054B054A51697A68D2430A405A610CED
S318080014EF37BD465DF8047B70470010024080B483B000AFAF
S3180800150278600B46FB70FB78002B06D0094B084A91697AA6
S31808001515680A439A6106E0054B054A91697A68D2430A4045
S318080015289A610C37BD465DF8047B70470010024080B483CD
S3180800153BB000AF78600B46FB70FB78002B06D0094B084A82
S3180800154ED1697A680A43DA6106E0054B054AD1697A68D265
S31808001561430A40DA610C37BD465DF8047B7047001002407E
S3180800157480B483B000AF78600B46FB70FB78002B06D0092F
S318080015874B084AD1687A680A43DA6006E0054B054AD16846
S3180800159A7A68D2430A40DA600C37BD465DF8047B704700E4
S318080015AD10024080B483B000AF78600B46FB70FB78002B83
S318080015C006D0094B084A11697A680A431A6106E0054B052F
S318080015D34A11697A68D2430A401A610C37BD465DF8047B5D
S318080015E670470010024080B483B000AF0346FB71044BFAC7
S318080015F9791A600C37BD465DF8047B704700BF4004424286
S3180800160C80B483B000AF0346FB71044BFA791A600C37BDB6
S3180800161F465DF8047B704700BF4C00424280B483B000AF34
S318080016320346FB71044BFA791A700C37BD465DF8047B700C
S318080016454700BF0710024080B487B000AF0346FB71002333
S31808001658FB6000237B610023FB74FB795B09DBB2FB60FBCA
S3180800166B68012B03D1124B1B687B6109E0FB68022B03D1ED
S3180800167E0F4B1B6A7B6102E00D4B5B6A7B61FB7903F01F2F
S3180800169103FB60FB687A6922FA03F303F00103002B02D08E
S318080016A40123FB7401E00023FB74FB7C18461C37BD465D97
S318080016B7F8047B70470010024080B400AF044B044A526A56
S318080016CA42F080725A62BD465DF8047B70470010024080BF
S318080016DDB485B000AF0346FB710023FB73094B9A68FB7944
S318080016F01340002B02D00123FB7301E00023FB73FB7B18F7
S31808001703461437BD465DF8047B704700BF0010024080B461
S3180800171683B000AF0346FB71044BFA791A700C37BD465D2C
S31808001729F8047B704700BF0A10024080B582B000AF786068
S3180800173C7A68784B9A420AD14FF400600121FFF713FF4F14
S3180800174FF400600021FFF70EFFDEE07B68B3F1804F08D114
S3180800176201200121FFF723FF01200021FFF71FFFD1E07A8A
S31808001775686B4B9A4208D102200121FFF716FF02200021EE
S31808001788FFF712FFC4E07A68654B9A4208D104200121FF09
S3180800179BF709FF04200021FFF705FFB7E07A68604B9A42EF
S318080017AE08D108200121FFF7FCFE08200021FFF7F8FEAA28
S318080017C1E07A685A4B9A4208D110200121FFF7EFFE102086
S318080017D40021FFF7EBFE9DE07A68554B9A4208D1202001FF
S318080017E721FFF7E2FE20200021FFF7DEFE90E07A684F4BCB
S318080017FA9A420AD14FF400500121FFF7B6FE4FF400500025
S3180800180D21FFF7B1FE81E07A68494B9A420AD14FF4002003
S318080018200121FFF7A7FE4FF400200021FFF7A2FE72E07A04
S3180800183368424B9A420AD14FF480100121FFF798FE4FF424
S3180800184680100021FFF793FE63E07A683C4B9A420AD14F97
S31808001859F400100121FFF789FE4FF400100021FFF784FEDF
S3180800186C54E07A68354B9A4208D140200121FFF799FE40C1
S3180800187F200021FFF795FE47E07A68304B9A4208D18020A5
S318080018920121FFF78CFE80200021FFF788FE3AE07A682A30
S318080018A54B9A420AD14FF480700121FFF77EFE4FF4807026
S318080018B80021FFF779FE2BE07A68244B9A420AD14FF480AB
S318080018CB300121FFF751FE4FF480300021FFF74CFE1CE015
S318080018DE7A681D4B9A420AD14FF400300121FFF742FE4FCE
S318080018F1F400300021FFF73DFE0DE07A68174B9A4209D179
S318080019044FF480200121FFF733FE4FF480200021FFF72E6E
S31808001917FE0837BD4680BD00BF002C0140000400400008BA
S3180800192A0040000C004000100040001400400034014000F7
S3180800193D4C0140005001400054014000180040001C004022
S318080019500020004000400140004401400048014080B485CE
S31808001963B000AF786039600023FB817B681B88FB817A6810
S318080019762E4B9A4213D07A682D4B9A420FD07B68B3F180FC
S318080019894F0BD07A682A4B9A4207D07A68294B9A4203D004
S3180800199C7A68284B9A4208D1FB8923F07003FB813B685A9D
S318080019AF88FB891343FB817A68224B9A420CD07A68214BE4
S318080019C29A4208D0FB8923F44073FB813B68DA88FB8913EA
S318080019D543FB817B68FA891A803B689A887B689A853B68C8
S318080019E81A887B681A857A680F4B9A420FD07A680E4B9AEE
S318080019FB420BD07A68124B9A4207D07A68114B9A4203D0CF
S31808001A0E7A68104B9A4204D13B681B7A1A467B681A867B33
S31808001A216801229A821437BD465DF8047B7047002C0140B7
S31808001A34003401400004004000080040000C004000100034
S31808001A47400014004000400140004401400048014080B427
S31808001A5A85B000AF7860396000237B810023FB810023BB7A
S31808001A6D817B681B8C9BB223F001039AB27B681A847B6839
S31808001A801B8CFB817B689B88BB817B681B8B7B817B892334
S31808001A93F070037B817B8923F003037B813B681A887B8971
S31808001AA613437B81FB8923F00203FB813B681A89FB8913D8
S31808001AB943FB813B685A88FB891343FB817A68244B9A4245
S31808001ACC0FD07A68234B9A420BD07A68224B9A4207D07A97
S31808001ADF68214B9A4203D07A68204B9A4223D1FB8923F0AF
S31808001AF20803FB813B685A89FB891343FB81FB8923F004D5
S31808001B0503FB813B689A88FB891343FB81BB8923F48073D7
S31808001B18BB81BB8923F40073BB813B689A89BB891343BB4B
S31808001B2B813B68DA89BB891343BB817B68BA899A807B6819
S31808001B3E7A891A833B68DA887B689A867B68FA891A8414C6
S31808001B5137BD465DF8047B704700BF002C0140003401400D
S31808001B6400400140004401400048014080B485B000AF7841
S31808001B7760396000237B810023FB810023BB817B681B8CAD
S31808001B8A9BB223F010039AB27B681A847B681B8CFB817B79
S31808001B9D689B88BB817B681B8B7B817B8923F4E0437B81A1
S31808001BB07B8923F440737B813B681B881B029AB27B891384
S31808001BC3437B81FB8923F02003FB813B681B891B019AB2DD
S31808001BD6FB891343FB813B685B881B019AB2FB891343FBD5
S31808001BE9817A68224B9A4203D07A68214B9A422BD1FB89B2
S31808001BFC23F08003FB813B685B891B019AB2FB891343FBF2
S31808001C0F81FB8923F04003FB813B689B881B019AB2FB892B
S31808001C221343FB81BB8923F48063BB81BB8923F40063BBDC
S31808001C35813B689B899B009AB2BB891343BB813B68DB8982
S31808001C489B009AB2BB891343BB817B68BA899A807B687A21
S31808001C5B891A833B68DA887B681A877B68FA891A8414376A
S31808001C6EBD465DF8047B704700BF002C01400034014080A6
S31808001C81B485B000AF7860396000237B810023FB81002358
S31808001C94BB817B681B8C9BB223F480739AB27B681A847BCA
S31808001CA7681B8CFB817B689B88BB817B689B8B7B817B8946
S31808001CBA23F070037B817B8923F003037B813B681A887BAE
S31808001CCD8913437B81FB8923F40073FB813B681B891B022D
S31808001CE09AB2FB891343FB813B685B881B029AB2FB8913BB
S31808001CF343FB817A68224B9A4203D07A68214B9A422BD1ED
S31808001D06FB8923F40063FB813B685B891B029AB2FB8913BB
S31808001D1943FB81FB8923F48063FB813B689B881B029AB2C1
S31808001D2CFB891343FB81BB8923F48053BB81BB8923F4007B
S31808001D3F53BB813B689B891B019AB2BB891343BB813B684C
S31808001D52DB891B019AB2BB891343BB817B68BA899A807B13
S31808001D65687A899A833B68DA887B689A877B68FA891A84C8
S31808001D781437BD465DF8047B704700BF002C014000340110
S31808001D8B4080B485B000AF786039600023BB8100237B81F0
S31808001D9E0023FB817B681B8C9BB223F480539AB27B681A7B
S31808001DB1847B681B8C7B817B689B88FB817B689B8BBB8140
S31808001DC4BB8923F4E043BB81BB8923F44073BB813B681B3C
S31808001DD7881B029AB2BB891343BB817B8923F400537B81BA
S31808001DEA3B681B891B039AB27B8913437B813B685B881B30
S31808001DFD039AB27B8913437B817A68124B9A4203D07A6850
S31808001E10114B9A420AD1FB8923F48043FB813B689B899B62
S31808001E23019AB2FB891343FB817B68FA899A807B68BA8955
S31808001E369A833B68DA887B68A3F840207B687A891A8414F3
S31808001E4937BD465DF8047B704700BF002C01400034014012
S31808001E5C80B582B000AF786039603B681B88002B0FD13B52
S31808001E6F6859883B689A883B681B89786801F066F93B682A
S31808001E82DB887868194601F016F836E03B681B88042B0F04
S31808001E95D13B6859883B689A883B681B89786801F08EF973
S31808001EA83B68DB887868194601F01EF822E03B681B88087D
S31808001EBB2B0FD13B6859883B689A883B681B89786801F09A
S31808001ECEC0F93B68DB887868194601F028F80EE03B6859FA
S31808001EE1883B689A883B681B89786801F0F2F93B68DB888A
S31808001EF47868194601F034F80837BD4680BD00BF80B5847A
S31808001F07B000AF786039600023FB810123BB813B685B8864
S31808001F1A002B02D10223FB8101E00023FB813B689B8801C0
S31808001F2D2B02D10223BB8101E00123BB813B681B88002B82
S31808001F401CD13B6859883B689A883B681B89786801F0FC36
S31808001F53F83B68DB887868194600F0ACFF3B681B89F989CC
S31808001F66BA89786801F02BF93B68DB887868194600F0BB32
S31808001F79FF1BE03B6859883B689A883B681B89786801F0EC
S31808001F8C1BF93B68DB887868194600F0ABFF3B681B89F901
S31808001F9F89BA89786801F0D2F83B68DB887868194600F085
S31808001FB282FF1037BD4680BD00BF80B483B000AF78603920
S31808001FC5603B681A883B685B8813439AB23B689B88134312
S31808001FD89AB23B68DB8813439AB23B681B8913439AB23BD0
S31808001FEB685B8913439AB23B689B8913439AB27B68A3F800
S31808001FFE44200C37BD465DF8047B704700BF80B483B00067
S31808002011AF78607B684FF6FF729A807B6800221A807B68F2
S318080020240022DA807B6800225A807B6800221A720C37BDAF
S31808002037465DF8047B704700BF80B483B000AF78607B6827
S3180800204A00221A807B6800225A807B6800229A807B6800D8
S3180800205D22DA807B6800221A817B6800225A817B68002261
S318080020709A817B680022DA810C37BD465DF8047B70470003
S31808002083BF80B483B000AF78607B6800221A807B680022EB
S318080020965A807B6801229A807B680022DA807B6800221AB1
S318080020A9810C37BD465DF8047B704780B483B000AF7860D6
S318080020BC7B6800221A807B6800225A807B6800229A807BEB
S318080020CF680022DA807B6800221A817B6800225A817B68A9
S318080020E200229A810C37BD465DF8047B704780B483B00068
S318080020F5AF78600B46FB70FB78002B08D07B681B889BB23E
S3180800210843F001039AB27B681A8007E07B681B889BB223D9
S3180800211BF001039AB27B681A800C37BD465DF8047B704715
S3180800212E00BF80B483B000AF78600B46FB70FB78002B0C7D
S31808002141D07B68B3F844309BB26FEA43436FEA53439AB244
S318080021547B68A3F8442009E07B68B3F844309BB2C3F30E8C
S31808002167039AB27B68A3F844200C37BD465DF8047B704755
S3180800217A00BF80B483B000AF786013460A467A807B707B8E
S3180800218D78002B08D07B689B899AB27B8813439AB27B68DB
S318080021A09A8109E07B689B899AB27B88DB439BB213409A6C
S318080021B3B27B689A810C37BD465DF8047B704700BF80B497
S318080021C683B000AF78600B467B807B687A889A820C37BDF1
S318080021D9465DF8047B704780B483B000AF786013460A467D
S318080021EC7A803B807A883B8813439AB27B68A3F848200CC4
S318080021FF37BD465DF8047B704780B483B000AF78601346B3
S318080022120A467A807B707B78002B08D07B689B899AB27BB2
S318080022258813439AB27B689A8109E07B689B899AB27B8831
S31808002238DB439BB213409AB27B689A810C37BD465DF804DE
S3180800224B7B704700BF80B483B000AF78607B681B899BB2BF
S3180800225E23F007039AB27B681A810C37BD465DF8047B70EE
S318080022714700BF80B582B000AF78600B467B807B88786829
S31808002284194600F0C9F87B681B899BB243F007039AB27B51
S31808002297681A810837BD4680BD80B584B000AFF86079813A
S318080022AA3A81FB807B89602B07D13A89FB88F86811460178
S318080022BD2200F081FF06E03A89FB88F8681146012200F078
S318080022D03DFF7B89F868194600F0A0F8FB681B899BB243CF
S318080022E3F007039AB2FB681A811037BD4680BD00BF80B51B
S318080022F686B000AFF86079813A81FB800023FB8279893A7E
S3180800230989FB88F86800F031F8FB681B89FB82FB8A23F012
S3180800231C0703FB82FB8A43F00703FB82FB8A23F07003FBD4
S3180800232F82FB8A43F07003FB82FB68FA8A1A811837BD468F
S3180800234280BD80B584B000AFF86079813A81FB8079893A61
S3180800235589FB88F86800F00BF8FB681B899BB243F48043BA
S318080023689AB2FB681A811037BD4680BD80B487B000AFF871
S3180800237B6079813A81FB800023FB82FB681B89FB82FB8A08
S3180800238EDBB2FB82FB881B029AB23B8913439AB27B8913BB
S318080023A1439AB2FB8A1343FB82FB68FA8A1A811C37BD465C
S318080023B45DF8047B704700BF80B483B000AF786013460A6D
S318080023C7467A803B807B687A881A857B683A889A820C3772
S318080023DABD465DF8047B704700BF80B485B000AF78600B9A
S318080023ED467B800023FB817B681B88FB81FB8923F07003E3
S31808002400FB81FA897B881343FB817B68FA891A801437BDDF
S31808002413465DF8047B704700BF80B485B000AF78600B46D7
S318080024267B800023FB817B681B89FB81FB8923F07003FBF3
S3180800243981FA897B881343FB817B68FA891A811437BD465A
S3180800244C5DF8047B704700BF80B487B000AFF86079813A7F
S3180800245F81FB800023FB820023BB8200237B82FB681B8939
S31808002472FB82FB681B8BBB82FB681B8C7B82FB8A23F007E0
S3180800248503FB82FA8A7B891343FB82BB8A23F4407323F039
S318080024980303BB82BB8A43F4807343F00103BB827B8A23D5
S318080024ABF022037B82FB881B019AB23B8913439AB27B8AA8
S318080024BE13437B82FB68FA8A1A81FB68BA8A1A83FB687A07
S318080024D18A1A841C37BD465DF8047B704700BF80B485B0B9
S318080024E400AF78600B467B800023FB817B681B8BFB81FB65
S318080024F78923F07003FB81FA897B881343FB817B68FA897B
S3180800250A1A831437BD465DF8047B704700BF80B485B00012
S3180800251DAF78600B467B800023FB817B681B8BFB81FB89A2
S3180800253023F4E043FB817B881B029AB2FB891343FB817B97
S3180800254368FA891A831437BD465DF8047B704700BF80B423
S3180800255685B000AF78600B467B800023FB817B689B8BFBB9
S3180800256981FB8923F07003FB81FA897B881343FB817B680F
S3180800257CFA899A831437BD465DF8047B704700BF80B4854D
S3180800258FB000AF78600B467B800023FB817B689B8BFB8184
S318080025A2FB8923F4E043FB817B881B029AB2FB891343FB9D
S318080025B5817B68FA899A831437BD465DF8047B704700BF69
S318080025C880B483B000AF78600B46FB70FB78002B08D07B57
S318080025DB681B889BB243F080039AB27B681A8007E07B683E
S318080025EE1B889BB223F080039AB27B681A800C37BD465DDA
S31808002601F8047B704700BF80B483B000AF78600B46FB7021
S31808002614FB78002B08D07B689B889BB243F004039AB27BDB
S31808002627689A8007E07B689B889BB223F004039AB27B688D
S3180800263A9A800C37BD465DF8047B704700BF80B483B0006E
S3180800264DAF78600B46FB70FB78002B08D07B689B889BB260
S3180800266043F008039AB27B689A8007E07B689B889BB22375
S31808002673F008039AB27B689A800C37BD465DF8047B704731
S3180800268600BF80B483B000AF78600B46FB70FB78002B0824
S31808002699D07B689B889BB243F001039AB27B689A8007E096
S318080026AC7B689B889BB223F001039AB27B689A800C37BD5A
S318080026BF465DF8047B704700BF80B485B000AF78600B4629
S318080026D27B800023FB817B681B8BFB81FB8923F00803FBAB
S318080026E581FA897B881343FB817B68FA891A831437BD46AA
S318080026F85DF8047B704700BF80B485B000AF78600B467BBB
S3180800270B800023FB817B681B8BFB81FB8923F40063FB810F
S3180800271E7B881B029AB2FB891343FB817B68FA891A8314C1
S3180800273137BD465DF8047B704700BF80B485B000AF786013
S318080027440B467B800023FB817B689B8BFB81FB8923F00865
S3180800275703FB81FA897B881343FB817B68FA899A831437BC
S3180800276ABD465DF8047B704700BF80B485B000AF78600B06
S3180800277D467B800023FB817B689B8BFB81FB8923F40063D8
S31808002790FB817B881B029AB2FB891343FB817B68FA899AEA
S318080027A3831437BD465DF8047B704700BF80B485B000AFE2
S318080027B678600B467B800023FB817B681B8BFB81FB892393
S318080027C9F00403FB81FA897B881343FB817B68FA891A8321
S318080027DC1437BD465DF8047B704700BF80B485B000AF78B4
S318080027EF600B467B800023FB817B681B8BFB81FB8923F4DE
S318080028028063FB817B881B029AB2FB891343FB817B68FAB7
S31808002815891A831437BD465DF8047B704700BF80B485B07B
S3180800282800AF78600B467B800023FB817B689B8BFB81FB9D
S3180800283B8923F00403FB81FA897B881343FB817B68FA899F
S3180800284E9A831437BD465DF8047B704700BF80B485B0004B
S31808002861AF78600B467B800023FB817B689B8BFB81FB89DB
S3180800287423F48063FB817B881B029AB2FB891343FB817B90
S3180800288768FA899A831437BD465DF8047B704700BF80B45C
S3180800289A85B000AF78600B467B800023FB817B681B8BFBF2
S318080028AD81FB8923F08003FB81FA897B881343FB817B68B8
S318080028C0FA891A831437BD465DF8047B704700BF80B48586
S318080028D3B000AF78600B467B800023FB817B681B8BFB81BD
S318080028E6FB89C3F30E03FB817B881B029AB2FB891343FBC9
S318080028F9817B68FA891A831437BD465DF8047B704700BFA2
S3180800290C80B485B000AF78600B467B800023FB817B689B51
S3180800291F8BFB81FB8923F08003FB81FA897B881343FB81A2
S318080029327B68FA899A831437BD465DF8047B704700BF80E9
S31808002945B485B000AF78600B467B800023FB817B689B8B0D
S31808002958FB81FB89C3F30E03FB817B881B029AB2FB891318
S3180800296B43FB817B68FA899A831437BD465DF8047B704730
S3180800297E00BF80B485B000AF78600B467B800023FB817B23
S31808002991681B8CFB81FB8923F00203FB81FA897B881343A6
S318080029A4FB817B68FA891A841437BD465DF8047B704700B9
S318080029B7BF80B485B000AF78600B467B800023FB817B6882
S318080029CA1B8CFB81FB8923F00803FB81FA897B881343FBD4
S318080029DD817B68FA891A841437BD465DF8047B704700BFBC
S318080029F080B485B000AF78600B467B800023FB817B681BED
S31808002A038CFB81FB8923F02003FB817B881B019AB2FB8985
S31808002A161343FB817B68FA891A841437BD465DF8047B7037
S31808002A294700BF80B485B000AF78600B467B800023FB81AB
S31808002A3C7B681B8CFB81FB8923F08003FB817B881B019A24
S31808002A4FB2FB891343FB817B68FA891A841437BD465DF8B7
S31808002A62047B704700BF80B485B000AF78600B467B800022
S31808002A7523FB817B681B8CFB81FB8923F40073FB817B880E
S31808002A881B029AB2FB891343FB817B68FA891A841437BD62
S31808002A9B465DF8047B704700BF80B485B000AF78600B4649
S31808002AAE7B800023FB817B681B8CFB81FB8923F40063FB6E
S31808002AC1817B881B029AB2FB891343FB817B68FA891A84AD
S31808002AD41437BD465DF8047B704700BF80B485B000AF78B9
S31808002AE7600B467B800023FB817B681B8CFB81FB8923F4E2
S31808002AFA0053FB817B881B039AB2FB891343FB817B68FA4C
S31808002B0D891A841437BD465DF8047B704700BF80B485B07F
S31808002B2000AF786013460A467A803B800023FB817B88010C
S31808002B332202FA03F3FB817B681B8C9AB2FB89DB439BB22C
S31808002B4613409AB27B681A847B681B8C9AB239887B8801B3
S31808002B59FA03F39BB213439AB27B681A841437BD465DF858
S31808002B6C047B704780B485B000AF786013460A467A803B44
S31808002B7F800023FB817B88042202FA03F3FB817B681B8CF5
S31808002B929AB2FB89DB439BB213409AB27B681A847B681BC9
S31808002BA58C9AB239887B8801FA03F39BB213439AB27B68B0
S31808002BB81A841437BD465DF8047B704780B485B000AF78F5
S31808002BCB6013460A467A803B800023FB6000237B817B68AB
S31808002BDEFB60FB681833FB607B88012202FA03F37B817BE3
S31808002BF1681B8C9AB27B89DB439BB213409AB27B681A84D9
S31808002C047B88002B02D07B88082B12D17B885B089BB2FAE9
S31808002C17681344FB60FB68FA68126822F070021A60FB68E2
S31808002C2AFA6811683A880A431A6015E07B88043B9BB25B46
S31808002C3D089BB2FA681344FB60FB68FA68126822F4E04296
S31808002C501A60FB68FA6811683A88120292B20A431A6014B6
S31808002C6337BD465DF8047B704780B483B000AF78600B464C
S31808002C76FB70FB78002B08D07B681B889BB243F002039AB7
S31808002C89B27B681A8007E07B681B889BB223F002039AB2DD
S31808002C9C7B681A800C37BD465DF8047B704700BF80B48353
S31808002CAFB000AF78600B467B807B88002B08D07B681B88F5
S31808002CC29BB243F004039AB27B681A8007E07B681B889B99
S31808002CD5B223F004039AB27B681A800C37BD465DF8047B2F
S31808002CE8704700BF80B483B000AF78600B46FB70FB780038
S31808002CFB2B08D07B689B889BB243F080039AB27B689A8063
S31808002D0E07E07B689B889BB223F080039AB27B689A800C7F
S31808002D2137BD465DF8047B704700BF80B483B000AF78601F
S31808002D340B467B807B681B889BB223F008039AB27B681AF8
S31808002D47807B681B889AB27B8813439AB27B681A800C37B4
S31808002D5ABD465DF8047B704700BF80B483B000AF78600B12
S31808002D6D467B807B689B889BB223F070039AB27B689A80E2
S31808002D807B689B889AB27B8813439AB27B689A800C37BD3E
S31808002D93465DF8047B704700BF80B483B000AF78600B4650
S31808002DA67B807B681B899BB223F007039AB27B681A817BDB
S31808002DB9681B899AB27B8813439AB27B681A810C37BD4638
S31808002DCC5DF8047B704700BF80B483B000AF78600B467BE2
S31808002DDF807B681B899BB223F080039AB27B681A817B683C
S31808002DF21B899AB27B8813439AB27B681A810C37BD465D0A
S31808002E05F8047B704700BF80B483B000AF78600B467B8085
S31808002E187B687A889A840C37BD465DF8047B704780B4830E
S31808002E2BB000AF78600B467B807B687A889A850C37BD46B9
S31808002E3E5DF8047B704780B483B000AF78600B467B807B33
S31808002E51687A889A860C37BD465DF8047B704780B483B09E
S31808002E6400AF78600B467B807B687A881A870C37BD465D51
S31808002E77F8047B704780B483B000AF78600B467B807B68EF
S31808002E8A7A889A870C37BD465DF8047B704780B483B000CC
S31808002E9DAF78600B467B807B687A88A3F840200C37BD461B
S31808002EB05DF8047B704700BF80B483B000AF78600B467BFD
S31808002EC3807B681B8B9BB223F00C039AB27B681A837B68C7
S31808002ED61B8B9AB27B8813439AB27B681A830C37BD465D21
S31808002EE9F8047B704700BF80B483B000AF78600B467B80A1
S31808002EFC7B681B8B9BB223F440639AB27B681A837B681B5B
S31808002F0F8B9AB27B881B029BB213439AB27B681A830C37F8
S31808002F22BD465DF8047B704700BF80B483B000AF78600B48
S31808002F35467B807B689B8B9BB223F00C039AB27B689A8376
S31808002F487B689B8B9AB27B8813439AB27B689A830C37BD6E
S31808002F5B465DF8047B704700BF80B483B000AF78600B4686
S31808002F6E7B807B689B8B9BB223F440639AB27B689A837B70
S31808002F81689B8B9AB27B881B029BB213439AB27B689A8346
S31808002F940C37BD465DF8047B704700BF80B483B000AF78FE
S31808002FA7600B467B807B681B889BB223F440739AB27B6891
S31808002FBA1A807B681B889AB27B8813439AB27B681A800C5C
S31808002FCD37BD465DF8047B704700BF80B483B000AF786071
S31808002FE07B689B8E9BB218460C37BD465DF8047B70470048
S31808002FF3BF80B483B000AF78607B681B8F9BB218460C3795
S31808003006BD465DF8047B704700BF80B483B000AF78607BF3
S31808003019689B8F9BB218460C37BD465DF8047B704700BFC9
S3180800302C80B483B000AF78607B68B3F840309BB218460CE0
S3180800303F37BD465DF8047B704780B483B000AF78607B68DA
S318080030529B8C9BB218460C37BD465DF8047B704700BF807B
S31808003065B483B000AF78607B681B8D9BB218460C37BD4660
S318080030785DF8047B704700BF80B485B000AF78600B467B31
S3180800308B800023FB737B681B8A9AB27B8813409BB2002B71
S3180800309E02D00123FB7301E00023FB73FB7B18461437BD5F
S318080030B1465DF8047B704780B483B000AF78600B467B80F3
S318080030C47B88DB439AB27B681A820C37BD465DF8047B7075
S318080030D74780B485B000AF78600B467B800023FB730023A1
S318080030EABB8100237B817B681B8A9AB27B881340BB817B89
S318080030FD689B899AB27B8813407B81BB89002B05D07B8940
S31808003110002B02D00123FB7301E00023FB73FB7B184614B5
S3180800312337BD465DF8047B704780B483B000AF78600B4687
S318080031367B807B88DB439AB27B681A820C37BD465DF804F2
S318080031497B704780B487B000AFF86079813A81FB8000236E
S3180800315CFB820023BB82FB681B8C9BB223F001039AB2FBC0
S3180800316F681A84FB681B8BFB82FB681B8CBB82FB8A23F0D4
S31808003182F303FB82FB881B019AB23B8913439AB2FB8A13D0
S3180800319543FB82BB8A23F00203BB827A89BB8A13439BB2D4
S318080031A843F00103BB82FB68FA8A1A83FB68BA8A1A841CAD
S318080031BB37BD465DF8047B704780B487B000AFF8607981C2
S318080031CE3A81FB800023FB820023BB8200237B82FB681B0C
S318080031E18C9BB223F010039AB2FB681A84FB681B8BFB82FB
S318080031F4FB681B8CBB827B891B017B82FB8A23F440731BEC
S31808003207051B0DFB82FB881B039AB2FB8A1343FB823B89F3
S3180800321A1B029AB2FB8A1343FB82BB8A23F02003BB827AA0
S3180800322D8ABB8A13439BB243F01003BB82FB68FA8A1A8307
S31808003240FB68BA8A1A841C37BD465DF8047B704780B4878C
S31808003253B000AFF86079813A81FB800023FB820023BB8273
S3180800326600237B82FB681B8C9BB223F480739AB2FB681AFD
S3180800327984FB689B8BFB82FB681B8CBB827B891B027B8245
S3180800328CFB8A23F0F303FB82FB881B019AB23B8913439A77
S3180800329FB2FB8A1343FB82BB8A23F40073BB827A8ABB8AAF
S318080032B213439BB243F48073BB82FB68FA8A9A83FB68BAD0
S318080032C58A1A841C37BD465DF8047B704700BF80B487B0B5
S318080032D800AFF86079813A81FB800023FB820023BB82009E
S318080032EB237B82FB681B8C9BB223F480539AB2FB681A8414
S318080032FEFB689B8BFB82FB681B8CBB827B891B037B82FB48
S318080033118A23F440731B051B0DFB823B891B029AB2FB8AD0
S318080033241343FB82FB881B039AB2FB8A1343FB82BB8A2308
S31808003337F40053BB827A8ABB8A13439BB243F48053BB82BE
S3180800334AFB68FA8A9A83FB68BA8A1A841C37BD465DF8046A
S3180800335D7B704780B500AF134B134A126842F001021A6055
S31808003370104A104B5968104B0B4053600D4A0D4B1B682318
S31808003383F0847323F480331360094B094A126822F480222C
S318080033961A60064B064A526822F4FE025A60034B4FF41FC1
S318080033A9029A6000F072F880BD00BF001002400000FFF868
S318080033BC80B485B000AF0023FB600023BB6000237B602CF2
S318080033CF4B5B6803F00C03FB60FB68042B07D0082B09D0FD
S318080033E2002B34D1274B274A1A6034E0254B254A1A6030A0
S318080033F5E0224B5B6803F47013BB601F4B5B6803F480333B
S318080034087B60BB689B0C0233BB607B68002B06D1BB681C8A
S3180800341B4A02FB03F2184B1A6013E0164B5B6803F4003336
S3180800342E002B06D0BB68154A02FB03F2124B1A6006E0BB90
S3180800344168114A02FB03F20E4B1A6004E003E00C4B0D4A6D
S318080034541A6000BF094B5B6803F0F0031B090B4AD35CDB9E
S31808003467B2FB60064B1A68FB68DA40044B1A601437BD46D0
S3180800347A5DF8047B7047001002400803002000127A00009D
S3180800348D093D000C03002080B500AF00F002F880BD00BFDF
S318080034A080B483B000AF00237B6000233B603A4B394A121F
S318080034B36842F480321A60374B1B6803F400333B607B6881
S318080034C601337B603B68002B03D17B68B3F5A06FF0D12FAA
S318080034D94B1B6803F40033002B02D001233B6001E000231A
S318080034EC3B603B68012B4BD1294B294A126842F010021A7A
S318080034FF60264B264A126822F003021A60234B234A12680B
S3180800351242F002021A601F4B1F4A52685A601D4B1D4A5280
S31808003525685A601B4B1B4A526842F480625A60184B184A47
S31808003538526822F47C125A60154B154A526842F4E8125A57
S3180800354B60124B124A126842F080721A6000BF0F4B1B6892
S3180800355E03F00073002BF9D00C4B0B4A526822F003025A1B
S3180800357160094B084A526842F002025A6000BF054B5B68B7
S3180800358403F00C03082BF9D10C37BD465DF8047B70470056
S31808003597BF0010024000200240D8650008E00100205C0BF3
S318080035AA00206C0B0020740C0020844641EA000313F003AB
S318080035BD0349D1403A23D30B6803604B6843608B6883605E
S318080035D0CB68C3600B6903614B6943618B698361CB69C385
S318080035E3610B6A03624B6A43628B6A8362CB6AC3620B6B88
S318080035F603634B6B43638B6B8363CB6BC363403040314099
S318080036093ADBD230320BD30B6803604B6843608B68836077
S3180800361CCB68C36010301031103AF3D20C3205D351F80444
S3180800362F3B40F8043B043AF9D2043208D0D2071CBF11F8F4
S31808003642013B00F8013B01D30B8803806046704700BF08E9
S318080036552A13D38B07B1D010F00303AED0C3F10403D21A06
S31808003668DB071CBF11F8013B00F8013BA4D331F8023B200E
S3180800367BF8023B9FE7043AD9D3013A11F8013B00F8013BD5
S3180800368EF9D20B7803704B7843708B788370604670470889
S318080036A1B50021044600F087F8044B1868C36B03B19847E9
S318080036B4204600F079FC00BFB465000870B50F4E0F4D76F6
S318080036C71BB61007D0043D0024013455F8043F9847A64239
S318080036DAF9D10A4E0B4D02F06EFF761BB61008D0043D0086
S318080036ED24013455F8043F9847A642F9D170BD70BD00BF29
S3180800370000000000000000000000000000000000F0B48480
S318080037130743D0541E002A3ED0CDB2034603E0621E002C7A
S3180800372638D0144603F8015B9A07F7D1032C2AD9CDB2456A
S31808003739EA05250F2C45EA054515D9A4F110073F0903F1D1
S3180800374C100606EB07161A46156055609560D5601032B290
S3180800375F42F8D104F00F040137032C03EB07130DD91E467E
S318080037722246043A032A46F8045BFAD8221F22F003020498
S3180800378532134404F003042CB1C9B21C4403F8011BA342EB
S31808003798FBD1F0BC704714460346C6E7024B13B102480036
S318080037ABF07DB8704700000000B53800082DE9F04F384B54
S318080037BE85B01B68029003F5A47201930F460392019BD3A5
S318080037D1F84881B8F1000F1CD0DDF80CB04FF00109DA4678
S318080037E4D8F804305C1E11D408F188059E1C05EB830508A1
S318080037F7EB860677B1EB6FBB420BD0013C631CA5F1040585
S3180800380AA6F10406F4D1244A7ABB05B0BDE8F08FD8F804E7
S3180800381D2056F8043C013AA24216BF0022C8F8044046F884
S31808003830042C002BE5D009FA04F2D8F88811D8F804B00A77
S318080038434210D0D8F88C110A420ED1029855F8041C9847C4
S31808003856D8F804305B45B7D1DAF800304345CDD0B2E798CD
S3180800386947F4E755F8040C9847F0E7D8F804306BB9D8F811
S3180800387C003063B14046CAF80030AFF30080DAF80080B843
S3180800388FF1000FA7D1BEE7D8F80030C2469846F6E7B4651F
S318080038A2000800000000014600200246034600F018B8380D
S318080038B5B5094D094C641BA41018BF05EB840505D0013CFD
S318080038C855F8043D9847002CF9D1BDE8384002F079BE0036
S318080038DBBF0000000000000000F0B5274C85B026680746E5
S318080038EED6F84841002C40D065681F2D1EDD224818B94F88
S31808003901F0FF3005B0F0BD4FF4C870039102920193AFF34B
S31808003914008003990446029A019B0028EED0D6F8485100A7
S3180800392720256060600546C6F84841C4F88801C4F88C01FA
S3180800393A3FB96B1C00200235636044F8251005B0F0BD01FF
S3180800394D26AE4004EB8500C0F88820D4F88821022F42EA9F
S318080039600602C4F88821C0F80831E7D1D4F88C311E43C482
S31808003973F88C61E1E706F5A674C6F84841B9E700BFB465B2
S318080039860008000000000B4B10B50446186808B1836B4B41
S31808003999B1132C0BD8084850F83430013306D000EBC40085
S318080039AC10BD01F08FF9132CF3D9002010BD00BF480700AE
S318080039BF20980B002070B501F051F913250446002628468E
S318080039D23146ABBE05464FF0FF30256070BDF0B5224C85F1
S318080039E5B00322002301940125039201AE02932846314650
S318080039F8ABBE06461C4D0423032201942E6003920DEB0391
S31808003A0B070293012630463946ABBE0746164E0322082378
S31808003A1E01943760039201AF0293012420463946ABBE040A
S31808003A3146114B621C1C6013D036680F4800234FF0FF316E
S31808003A44C1500833A02B0C4AFAD1296800231160966014FA
S31808003A57615360D360536105B0F0BD326814461A60164627
S31808003A6AE7E7B86500088C0B0020880B0020940B00209887
S31808003A7D0B002030B585B0019002910392062401AD2046EC
S31808003A902946ABBE0446631C02D0204605B030BDFFF79014
S31808003AA3FF05B030BD70B50E461546FFF76DFF044658B1D8
S31808003AB6314600682A46FFF7E0FF431C03D06368281A0389
S31808003AC944636070BD01F0CDF8092303604FF0FF3070BDC8
S31808003ADCF0B583B00C461646FFF752FF0546002839D0027E
S31808003AEF2E26D8012E21D0022E11D06E462B680A278DE86C
S31808003B02180038463146ABBE0646731C1ED03046002822A3
S31808003B15DB6C60204603B0F0BD036802AE46F8083D0C2751
S31808003B2838463146ABBE0746791C0FD038460444E0E7438D
S31808003B3B68E418DCD501F094F8162303604FF0FF30E5E701
S31808003B4EFFF739FFDEE7FFF736FF421CECD14FF0FF30DBD4
S31808003B61E701F083F8092303604FF0FF30D4E7FFF7B4BFCF
S31808003B7430B585B0019002910392052401AD20462946AB06
S31808003B87BE0446631C02D0204605B030BDFFF716FF05B0FC
S31808003B9A30BD70B50E461546FFF7F3FE0446E0B131460010
S31808003BAD682A46FFF7E0FF031E12DB6268E81A02449D424B
S31808003BC0626000D070BD01F051F8132504460026284631A4
S31808003BD346ABBE05460020256070BD4FF0FF30EFE701F0D0
S31808003BE642F8092303604FF0FF3070BD00BF30B583B00281
S31808003BF9AC44F8040D022528462146ABBE0446631C02D0B2
S31808003C0C204603B030BDFFF7D7FE03B030BD00BF70B582C0
S31808003C1FB00446FFF7B3FE054618B3013C012C11D92B68E6
S31808003C3202AC44F8043D022630462146ABBE0446631C10FF
S31808003C45D0204610B94FF0FF332B6002B070BD0A4B9A682D
S31808003C581B699A42E8D14FF0FF3303600020F3E7FFF7ACC2
S31808003C6BFE0028EFD1EBE700F0FBFF092303604FF0FF3099
S31808003C7EE7E7980B00200120704708B50A4B01461A686A77
S31808003C91B11046421869468A4201D81A6008BD00F0E4FF4B
S31808003CA40C2303604FF0FF3008BD02481860EFE7900B0007
S31808003CB720740C002070B50C46FFF764FE0546B0B16368E6
S31808003CCA4FF4806243F400536360E2620C2630462946AB61
S31808003CDDBE05466A1C03D028462061002070BDFFF76AFECA
S31808003CF0431CF8D170BD00F0B9FF092303604FF0FF307049
S31808003D03BD38B50C460546002120463C22FFF7FEFC284615
S31808003D162146BDE83840FFF7CEBF38B50D46044600213C9E
S31808003D29222846FFF7F0FC2046002100F012F8431C0446DD
S31808003D3C0BD06B68294643F401436B60FFF7B8FF054620EB
S31808003D4F46FFF764FF2C46204638BD00BF2DE9F047324E5B
S31808003D6290B082468846002456F83450E7006B1C0CD00129
S31808003D7534142CF7D100F077FF182303604FF0FF3528460C
S31808003D8810B0BDE8F08708F42063B3F5206F0DF104093B42
S31808003D9BD040F20163C8F3004518F0020F08EA030318BFB9
S31808003DAE45F002050BB145F0040518F0080F18BF25F004AF
S31808003DC105504618BF45F00805CDF804A001F0D5FB02956C
S31808003DD40390012528464946ABBE0546002D09DB46F834E1
S31808003DE75025463744002328467B6010B0BDE8F08700F04D
S31808003DFA38FF13260446002730463946ABBE064628462689
S31808003E0D6010B0BDE8F08749465046FFF782FF0130BDD0FE
S31808003E2000F024FF11230360ADE700BF980B00200EB400FF
S31808003E33B50199FFF791FF5DF804EB03B0704700BF08B56F
S31808003E4600F011FF582303604FF0FF3008BD70B582B000F3
S31808003E599001F08FFB0E2401906D4620462946ABBE04463F
S31808003E6C013402D0002002B070BD00F0F9FE1325044600C6
S31808003E7F2628463146ABBE05464FF0FF30256002B070BD91
S31808003E9200BFF0B505460C4640B11126002730463946AB1F
S31808003EA5BE064600232E606B6014B1002323606360002028
S31808003EB8F0BD00BF30B51024002520462946ABBE04462097
S31808003ECB4630BD00BF70B504461025002628463146ABBECC
S31808003EDE054624B1002325606360A360E360284670BD70E7
S31808003EF1B5FFF74BFD044698B1092528462146ABBE044674
S31808003F04012C0AD000F0B0FE13240546002620463146ABC7
S31808003F17BE064600242E60204670BD00F0A3FE092303601A
S31808003F2AF8E730B583B0D8B1009001F022FB122401906D24
S31808003F3D4620462946ABBE0446631C0BD0FF2C204606D8CC
S31808003F502CB14000C0F3072301D0A342F9D103B030BDFF37
S31808003F63F72FFD0446EFE7012003B030BD30B585B00C46CD
S31808003F76009001F000FB01902046029401F0FBFA0F240305
S31808003F89906D4620462946ABBE0446631C06D02046003061
S31808003F9C18BF0120404205B030BDFFF70DFDF6E74FF0FFCD
S31808003FAF3100F000B8062930B50CBF044D044D18242046F5
S31808003FC22946ABBE0446204630BD2300020026000200001C
S31808003FD52100F004B80B4B5B58435004310A480A4B42182C
S31808003FE89A42FFF4F6AF094A00F003B8002342F8043B07A3
S31808003FFB4B9A42FFF4F9AFFCF78DFA7047D8650008E0018C
S3180800400E00205C0B00206C0B0020740C0020FFF7FEBF2DD3
S31808004021E9F047066845684FF6E07C002443FA04F7FF0740
S3180800403421D51FFA84F8B8F1070F04D84FEA8807BFB2B15B
S318080040474601E06746A9464FF00F0A0AFA07FA29EA0A0912
S3180800405A07F1020A02FA0AFA01FA07F74AEA070747EA09CC
S3180800406D07B8F1070F98BF3E4688BF3D4601340CF1040C85
S31808004080102C1FFA8CFCD2D106604560BDE8F08701430232
S318080040934B41F080011960704700000140044BC1F3140186
S318080040A61A6800F0E0600A4302431A60704704000140023D
S318080040B94B1A6810431860704700BF1C0001401C4B98423A
S318080040CC28D00DD8A3F5006398421DD003F5806398421C63
S318080040DFD0B0F1804F29D14FF4007024E0144B98421CD0AA
S318080040F204D8A3F58063984214D07047114B984204D003D4
S31808004105F50063984212D0704740F28B1010E040F20120BE
S318080041180DE040F202200AE040F2032007E04FF401700467
S3180800412BE040F2052001E040F28D1000F06ABD7047000CB2
S3180800413E004000140040002C0140C3681943C1607047C33D
S318080041516823EA0101C160704700000269C36813400B40CA
S318080041640DD080290DD801D020290CD1074B984209D003D0
S31808004177F50063C31A58425841704718467047002070471C
S3180800418A0120704700BF002C014003690B420CBF0020016B
S3180800419D207047036923EA01010161704710B5046813430F
S318080041B024F45C7419430C43046010BD036801F4407123F6
S318080041C3F44073036003680B4303607047036843F08003DD
S318080041D603607047036823F0800303607047036801F060D7
S318080041E90123F06003036003680B4303607047036823F08A
S318080041FC100303607047036843F0100303607047036843FC
S3180800420FF0080303607047036823F008030360704703686B
S3180800422223F0040303607047036843F00403036070470385
S318080042356823F0020303607047036843F002030360704711
S31808004248036843F0010303607047036823F0010303607044
S3180800425B47064B984203D003F50063984204D1436801F453
S3180800426EFE4119434160704700BF002C0140064B984203E2
S31808004281D003F50063984205D1436801F4FE4123EA010153
S3180800429441607047002C0140436843F08003436070474346
S318080042A76823F0800343607047436823F07003436043681F
S318080042BA194341607047436823F00803436070474368431E
S318080042CDF0080343607047054B984203D003F50063984249
S318080042E003D1436843F0040343607047002C0140054B9855
S318080042F34203D003F50063984203D1436823F00403436024
S318080043067047002C0140054B984203D003F500639842033D
S31808004319D1436843F0010343607047002C0140054B9842DF
S3180800432C03D003F50063984203D1436823F00103436070BF
S3180800433F47002C014081627047044B984203D003F50063B8
S31808004352984200D10163704700BF002C0140C16270470678
S318080043652916D8DFE801F0041508150D151100836943F0E0
S31808004378800302E0836943F4004383617047C36943F080DF
S3180800438B0302E0C36943F40043C3617047062916D8DFE8C7
S3180800439E01F0041508150D151100836923F0800302E083BD
S318080043B16923F4004383617047C36923F0800302E0C369BD
S318080043C423F40043C3617047062916D8DFE801F0041508AD
S318080043D7150D151100836943F0040302E0836943F480636F
S318080043EA83617047C36943F0040302E0C36943F48063C3C6
S318080043FD617047062916D8DFE801F0041508150D15110049
S31808004410836923F0040302E0836923F4806383617047C35F
S318080044236923F0040302E0C36923F48063C36170470629E3
S3180800443600F2BF80DFE811F00700BD003200BD005E00BD9E
S31808004449008C00836923F00303836183698361836923F00E
S3180800445C70038361072A00F2A980DFE802F02E5A04080C43
S3180800446F101418836943F0200384E0836943F0300380E098
S31808004482836943F040037CE0836943F0500378E083694362
S31808004495F0600374E0836943F0700370E0836923F44073C7
S318080044A8836183698361836923F4E0438361072A7ED8DFCF
S318080044BBE802F00460060A0E12161A83695CE0836943F4F7
S318080044CE005358E0836943F4405354E0836943F480435022
S318080044E1E0836943F4A0434CE0836943F4C04348E083696E
S318080044F443F4E04344E0836923F00303836183698361C3AD
S318080045076923F07003C361072A52D8DFE802F03204080C22
S3180800451A1014181C836943F010032EE0C36943F020034323
S3180800452DE0C36943F030033FE0C36943F040033BE0C369F3
S3180800454043F0500337E0C36943F0600333E0C36943F07019
S31808004553032FE0836923F44073836183698361C36923F488
S31808004566E043C361072A24D8DFE802F004060B0F13171B9E
S318080045791FC3691BE0836943F4805383617047C36943F4E7
S3180800458C005312E0C36943F440530EE0C36943F480430AB5
S3180800459FE0C36943F4A04306E0C36943F4C04302E0C3697B
S318080045B243F4E043C3617047062916D8DFE801F0041508BD
S318080045C5150D151100836943F0080302E0836943F40063FB
S318080045D883617047C36943F0080302E0C36943F40063C352
S318080045EB617047062916D8DFE801F0041508150D15110059
S318080045FE836923F0080302E0836923F4006383617047C3EC
S318080046116923F0080302E0C36923F40063C361704700009E
S31808004624062915D8DFE801F0041408140C141000036A23AD
S31808004637F002030AE0036A23F0200306E0036A23F4007303
S3180800464A02E0036A23F4005303620C4B984203D003F50035
S3180800465D63984211D1032907D0052909D001290BD1036AA0
S3180800467023F0080306E0036A23F0800302E0036A23F400BC
S318080046836303627047002C0140062915D8DFE801F004143E
S3180800469608140C141000036A43F002030AE0036A43F02068
S318080046A90306E0036A43F4007302E0036A43F400530362B2
S318080046BC0C4B984203D003F50063984211D1032907D005BA
S318080046CF2909D001290BD1036A43F0080306E0036A43F091
S318080046E2800302E0036A43F4006303627047002C014006BC
S318080046F52915D8DFE801F0041408140C141000036A43F0D2
S3180800470801030AE0036A43F0100306E0036A43F480730270
S3180800471BE0036A43F4805303620C4B984203D003F5006362
S3180800472E984211D1032907D0052909D001290BD1036A43EE
S31808004741F0040306E0036A43F0400302E0036A43F480632E
S3180800475403627047002C0140062915D8DFE801F0041408C7
S31808004767140C141000036A23F001030AE0036A23F01003EC
S3180800477A06E0036A23F4807302E0036A23F4805303620C17
S3180800478D4B984203D003F50063984211D1032907D00529CB
S318080047A009D001290BD1036A23F0040306E0036A23F040EC
S318080047B30302E0036A23F4806303627047002C0140154BB0
S318080047C6984203D003F50063984223D1062921D8DFE8010C
S318080047D9F004080C1014181C00436843F4807316E04368E9
S318080047EC43F4007312E0436843F480630EE0436843F4007B
S318080047FF630AE0436843F4805306E0436843F4005302E09A
S31808004812436843F4804343607047002C0140154B984203DC
S31808004825D003F50063984223D1062921D8DFE801F004088D
S318080048380C1014181C00436823F4807316E0436823F4008E
S3180800484B7312E0436823F480630EE0436823F400630AE045
S3180800485E436823F4805306E0436823F4005302E0436823F9
S31808004871F4804343607047002C014006290CD8DFE801F0DD
S31808004884040B060B080B0A004263704782637047C2637049
S318080048974702647047054B984203D003F50063984203D196
S318080048AA436C43F4004343647047002C0140054B984203CC
S318080048BDD003F50063984203D1436C23F40043436470479A
S318080048D0002C0140054B984203D003F50063984203D14311
S318080048E36C43F4804343647047002C0140054B984203D086
S318080048F603F50063984203D1436C23F480434364704700B1
S318080049092C0140054B984203D003F50063984203D1436C6B
S3180800491C43F4005343647047002C0140054B984203D00325
S3180800492FF50063984203D1436C23F4005343647047002CBE
S318080049420140054B984203D003F50063984203D1436C431B
S31808004955F4805343647047002C0140054B984203D003F5BA
S318080049680063984203D1436C23F4805343647047002C01F9
S3180800497B40054B984203D003F50063984203D1436C43F4EF
S3180800498E006343647047002C0140054B984203D003F500E5
S318080049A163984203D1436C23F4006343647047002C0140F0
S318080049B4054B984203D003F50063984203D1436C43F48076
S318080049C76343647047002C0140054B984203D003F5006349
S318080049DA984203D1436C23F4806343647047002C01400595
S318080049ED4B984203D003F50063984202D1436C19434164F9
S31808004A00704700BF002C0140054B984203D003F5006398C2
S31808004A134202D1436C19434164704700BF002C014043692E
S31808004A26194341617047406A704741627047032924D8DFF8
S31808004A39E801F0020A131B836923F0F0038361836943EA5A
S31808004A4C021206E0836923F470438361836943EA023282E6
S31808004A5F617047C36923F0F003C361C36943EA021206E075
S31808004A72C36923F47043C361C36943EA0232C2617047039F
S31808004A852924D8DFE801F0020A131B836923F00C03836107
S31808004A98836943EA820206E0836923F440638361836943C1
S31808004AABEA822282617047C36923F00C03C361C36943EAF7
S31808004ABE820206E0C36923F44063C361C36943EA8222C2A4
S31808004AD161704701F0FD03012B02F0030205D1531EDBB2C4
S31808004AE4012B98BF82F00302032922D8DFE801F0020912BC
S31808004AF719836923F00303836183691A4306E0836923F46A
S31808004B0A40738361836943EA022282617047C36923F003DA
S31808004B1D03C361C3691A4306E0C36923F44073C361C3699B
S31808004B3043EA0222C26170478900012202FA01F1036A0B27
S31808004B4343036270478900012202FA01F1036A23EA0103DA
S31808004B5603627047836823F470638360836843EA012181AF
S31808004B69607047836823F440538360836843EA0131816071
S31808004B7C7047836811B143F4004301E023F40043836070AC
S31808004B8F47836823F0070383608368194381607047836809
S31808004BA223F07003836083681943816070470368194301E2
S31808004BB5607047036823EA0101016070470368194301600E
S31808004BC87047036823EA0101016070474309012100F01F06
S31808004BDB0001FA00F003F1804303F504331A68104318609B
S31808004BEE70474309012100F01F0001FA00F003F1804303CD
S31808004C01F504331A6822EA0000186070474309012100F04B
S31808004C141F0001FA00F003F1804303F504331A6802431AAE
S31808004C27601A6822EA0000186070474309012100F01F00D2
S31808004C3A01FA00F003F1804303F504331A681043186070CB
S31808004C4D474309012100F01F0001FA00F003F1804303F5E8
S31808004C6004331A6822EA000018607047014B1868704700BC
S31808004C73BF480700200020704700207047014900F001B950
S31808004C8600BFA956000870B54B1E682505FB03F50E4605DB
S31808004C99F1740100F03EF9044640B100210C30666005F119
S31808004CAC68022160A060FEF72DFD204670BD00BF024B033B
S31808004CBF49186800F0E1B800BFB4650008A95600082DE985
S31808004CD2F04F846B83B00746002C65D17D68334804230327
S31808004CE52107F53B72F863C7F8E412C7F8E822C7F8E0422A
S31808004CF805F15C00AB812C606C60AC606C66EC812C616C81
S31808004D0B61AC6121460822FEF7FDFCDFF89CB0BE68DFF87A
S31808004D1E98A0DFF89890DFF8988001230922ED61C5F820D4
S31808004D31B0C5F824A0C5F82890C5F82C802146F381B28144
S31808004D4434607460B460746634617461B461082206F15CFC
S31808004D57000193FEF7D9FCFD6812200222F661C6F820B03D
S31808004D6AC6F824A0C6F82890C6F82C802146A881EA812C9F
S31808004D7D606C60AC606C662C616C61AC6105F15C00082228
S31808004D90FEF7BEFC019BED61C5F820B0C5F824A0C5F82876
S31808004DA390C5F82C80BB6303B0BDE8F08F814C0008F154E7
S31808004DB60008195500085155000875550008214B70B51D30
S31808004DC9680646AB6B002B2CD005F538756B68AC68013B0E
S31808004DDC05D521E0013B5A1C04F168041CD0B4F90C200003
S31808004DEF2AF6D1002501234FF6FF72E281A38165662560DC
S31808004E02A560656025616561A561294604F15C000822FE8B
S31808004E15F77CFC256365636564A564204670BD2B682BB1E9
S31808004E281D46D4E72846FFF74FFFCEE730460421FFF7282B
S31808004E3BFF286008B10546C8E70C23336070BD00BFB46555
S31808004E4E0008704700BF704700BF704700BF704700BF0261
S31808004E614B0349186800F00FB800BF48070020794C000867
S31808004E74024B0349186800F005B800BF480700207D4C0060
S31808004E87082DE9F04110F53877884619D000267D68BC6821
S31808004E9A013D0ED4A389013D012B06D9B4F90E3020460110
S31808004EAD3301D0C04706436B1C04F16804F0D13F68002F11
S31808004EC0E9D13046BDE8F0813E463046BDE8F0812DE9F86D
S31808004ED34310F53876804689461AD000277568B468013DEB
S31808004EE60FD4A389013D012B07D9B4F90E3021460133408C
S31808004EF94601D0C84707436B1C04F16804EFD13668002EB4
S31808004F0CE8D13846BDE8F88337463846BDE8F8832DE9F00C
S31808004F1F4F01F10B05162D83B0064627D935F0070527D432
S31808004F32A94225D8304600F08CFAB5F5FC7F26D2C14F4F0E
S31808004F45EAD50C07EBCC03DC689C4200F0D2816368E26845
S31808004F5823F0030323445868A16840F00105CA6030469188
S31808004F6B605D6000F073FA0834204603B0BDE8F08F1025FD
S31808004F7EA942D9D900240C232046336003B0BDE8F08F5FF3
S31808004F91EA552C00F08980BCF1040F00F260814FEA951C1E
S31808004FA40CF1380C4FEA4C01A64F07EB8101CC68A14205A0
S31808004FB7D10CE0002B79DAE468A14207D0626822F00302B7
S31808004FCA531B0F2BF4DD0CF1FF3C0CF1010C9B4B3C69037D
S31808004FDDF1080E744500F07E81616821F003014A1B0F2A88
S31808004FF000F36481002AC3F814E0C3F810E069DAB1F5005B
S318080050037F80F03A81C9088A104FF0010808FA02F803EB45
S31808005016C1015A68886848EA0202A060E1605A608C60C424
S31808005029604FEAAC030120984090425BD8024206D12CF0E9
S3180800503C030C400002420CF1040CFAD007EBCC084446E1B8
S3180800504F46E3689C4207D146E1002A80F25781DB689C423D
S3180800506200F04081596821F003014A1B0F2AF2DD1C465483
S31808005075F808CFD96845F0010942F001081D44C3F80490E0
S318080050883046CCF80C10C1F808C07D613D61C5F80CE0C546
S3180800509BF808E0C5F80480AA5000F0D8F964E77E214FF0EF
S318080050AE3F0C7CE722445068E368A16840F00105CB603030
S318080050C1469960556000F0C7F90834204603B0BDE8F08FB1
S318080050D421444B68304643F001034B6000F0BAF90834204C
S318080050E74603B0BDE8F08FBC68636823F00309A94504D3B8
S318080050FAC5EB09030F2B00F39180514B524A196813680562
S3180800510DEB010A013304EB090B00F061810AF5805A0AF1AE
S318080051200F0A2AF47F6A2AF00F0A30465146019200F0CCBF
S31808005133F9B0F1FF3F8046019A00F00181834500F2FB807B
S31808005146DFF814C1C345DCF800305344CCF8003000F04ACB
S318080051598112683C4901321BBFCBEB080B5B44C1F8008007
S3180800516CCCF8003018F0070300F01481C3F10802C3F580A1
S3180800517F5390440833C244CAF30B0ACAEB030A5146304606
S31808005192CDF804C000F099F9431CDDF804C000F03581C88B
S318080051A5EB0002524442F00102DCF80030BC425344C7F8D9
S318080051B80880CCF80030C8F80420DFF898A015D0B9F10FC9
S318080051CB0F40F2EB806168A9F10C0222F0070201F0010198
S318080051DE42EA010E0520A1180F2AC4F804E048608860002E
S318080051F1F21181174ABC6811688B4288BF1360154A1168BC
S318080052048B4288BF1360626822F003029542C5EB02030194
S31808005217D80F2B04DC304600F01BF90024A6E645F0010222
S3180800522A43F00103254462603046BD606B6000F00EF908A4
S3180800523D34204603B0BDE8F08F00BF4C070020400C002041
S31808005250580B00203C0C0020380C0020440C0020BCF114BD
S318080052630F61D9BCF1540F00F28F804FEA153C0CF16E0CCF
S318080052764FEA4C0197E64B0A042B58D9142B00F2AD8003FE
S31808005289F15B02500007EB80008368DFF8B881834200F044
S3180800529C8A805A6822F00302914202D29B689842F7D1D9E9
S318080052AF687A68E160A3608C60DC60B6E645F0010742F01D
S318080052C201012544676030465D611D61C5F80CE0C5F80879
S318080052D5E06960AA50083400F0BCF848E65A68A1E609F1C4
S318080052E8010919F0030F04F108047FF4ADAE2DE004F108A7
S318080052FB036469A34208BF0CF1020C3FF467AE23E619445D
S3180800530E48681C4654F8082FDB6840F001054D603046D37A
S31808005321609A6000F098F824E60CF15B0C4FEA4C013BE67C
S318080053348A0938325000A8E7BC423FF402AFBC686268228A
S31808005347F0030261E7D8F8008098457AD11CF0030FA8F1D9
S3180800535A08030CF1FF3CF4D17B6823EA00037B6040009884
S3180800536D423FF6BEAE00283FF4BBAE0342CC467FF464AE9C
S31808005380400003420CF1040CFAD05DE6BCF5AA7F19D84F53
S31808005393EAD53C0CF1770C4FEA4C0105E64FF48053EEE623
S318080053A60123C8F80430444600222EE7921001209040D8A2
S318080053B9F8042019460243C8F8042075E740F254539C4519
S318080053CC1BD84FEA954C0CF17C0C4FEA4C01E7E50AF110D1
S318080053DF0AA3E6542B1FD80A0B6E3250004FE7CBF30B019F
S318080053F200297FF4B1AE0AEB0901BA6841F001015160F6A4
S31808005405E6FC214FF07E0CCEE501224FF0000ACBE604F1F5
S318080054180801304600F066FADAF80030E6E6B3F5AA7F0302
S3180800542BD8CA0B773250002CE740F25452934203D88A0C89
S3180800543E7C32500024E7FC207E2221E77B688DE700BF4C1E
S31808005451070020704700BF704700BFF0B5044689B00846B1
S318080054640D4600F089F8A36802219A89DFF844E000F10125
S318080054770C012704AE0291910404950590CDF80CC0CDF882
S3180800548A18E00797019606D4596E42F4005221F400519AAB
S3180800549D8159662046194601AA00F0EDFA00280CBF0A204A
S318080054B04FF0FF3009B0F0BDBC650008024B01461868FFCB
S318080054C3F7CBBF00BF4807002038B5074C0023054608461D
S318080054D62360FEF7D6FB431C00D038BD2368002BFBD02B9C
S318080054E96038BD700C002010B50C46B1F90E1000F012FDD3
S318080054FC002803DB236D0344236510BDA38923F48053A3A4
S3180800550F8110BD00BF002070472DE9F0410C4689891D4689
S31808005522CB051646074606D5B4F90E100022022300F031E1
S31808005535FCA18921F48051A1813846B4F90E1032462B46F5
S31808005548BDE8F04100F046B810B50C46B1F90E1000F01E91
S3180800555BFC421CA38904D043F480532065A38110BD23F43E
S3180800556E8053A38110BDB1F90E1000F044B820F003011080
S31808005581F00300C0F1000051F8043B00F1040C4FEACC0CCB
S318080055946FF000021CBF22FA0CF213434FF0010C4CEA0CBC
S318080055A72C4CEA0C4CA3EB0C0222EA030212EACC1204BFDF
S318080055BA51F8043B0430F4D013F0FF0F1FBF013013F47FAA
S318080055CD4F013013F47F0F18BF0130704700BF70B5084CB1
S318080055E006460025084611461A462560FEF7D6FA431C008B
S318080055F3D070BD2368002BFBD0336070BD700C002038B5D0
S31808005606074C0023054608462360FEF704FB431C00D03896
S31808005619BD2368002BFBD02B6038BD700C002070B50C469F
S3180800562C054631B110B1836B002B2FD0B4F90C300BB900AA
S3180800563F2070BD2846214600F0DBF8E36A064633B128467A
S31808005652E16998470028B8BF4FF0FF36A3891B061CD4219D
S318080056656B41B104F14003994202D0284600F03BF900232D
S318080056782363616C21B1284600F034F900236364FFF7E29F
S3180800568BFB0023A381FFF7E0FB304670BDFFF71AFBCCE78A
S3180800569E2846216900F023F9DDE7024B01461868FFF7BB5E
S318080056B1BF00BF480700208B892DE9F0419AB20D461107D9
S318080056C480463CD46A6843F40063002AAB8159DDAC6A00E1
S318080056D72C4BD09BB203F48052002192B2D8F80060C8F800
S318080056EA0010002A4FD02A6D5F0705D569682B6B521A0B91
S318080056FDB1EB6BD21A4046E9690023A047441C4AD0AB8909
S318080057102A6923F400639BB200212A60DA04AB8169604C54
S31808005723D4296BC8F8006011B305F14003994202D04046AD
S3180800573600F0D9F800202863BDE8F0812E69AEB191072C16
S31808005749680CBF6B6900232E60A41BAB600AE032462346F2
S3180800575C6F6A4046E969B8470028C0EB0404064404DD0076
S3180800576F2CF2DC0020BDE8F081AB894FF0FF3043F04003D1
S31808005782AB81BDE8F081EA6B002AA2DCF0E701234046E95D
S3180800579569A047431C02461ED0AB89AC6AA6E7D8F8003037
S318080057A85BB9AA89296922F4006292B26B60D304AA812955
S318080057BB60B2D52865B0E71D2B01D0162B13D1A9892B69BE
S318080057CE21F400610022A9812B606A60A3E7D8F800300019
S318080057E12BDCD01D2B01D0162BC5D1C8F80060BFE7AB89E6
S318080057F443F04003AB81BDE8F08100BF10B5044682B008D4
S31808005807B1836B53B1B1F90C0008B902B010BD204602B0CF
S3180800581ABDE81040FFF74BBF0191FFF754FA0199EFE72012
S3180800582DB1054B01461868FFF7E4BF034B04491868FFF7E8
S3180800584047BB00BF48070020B465000801580008F8B523C5
S318080058534D0F460446FFF7FCFDAB685E6826F00306F11B55
S3180800586601F6EF7121F47F6121F00F01A1F58057B7F5801B
S318080058795F07DB20460021FFF724FEAB683344984204D0F6
S3180800588C2046FFF7E3FD0020F8BD20467942FFF717FE01BD
S3180800589F300DD0104BAA681968F61B46F001062046C91B55
S318080058B256601960FFF7CFFD0120F8BD20460021FFF7038E
S318080058C5FEAB68C21A0F2ADEDD064D04492D6842F0010277
S318080058D8401B5A600860D5E74C070020440C0020580B0030
S318080058EB202DE9F0410D460646002955D0FFF7ACFD55F85C
S318080058FE041CDFF870C1A5F1080421F00103E218DCF808D4
S31808005911005768904227F0030768D011F00101576032D0CF
S318080059240021D0194068C00706D43B44906800294DD0D280
S3180800593768C260906043F001026260E350E1B9B3F5007FE9
S3180800594A2DD35A0A042A69D89809383041000CEB810CDCBF
S3180800595DF808204449624565D0516821F003018B4202D231
S3180800597092689445F7D1D368E360A2609C60D4603046BD98
