S00F00006F75742F6D61696E2E733139B9
S3180800000000200020C9330008D1010008DD010008E50100F5
S3180800001308ED010008F501000800000000000000000000D0
S31808000026000000000000FD0100080902000800000000158B
S31808000039020008210200081534000815340008153400087E
S3180800004C1534000815340008153400081534000815340006
S3180800005F08153400081534000815340008153400081534EB
S31808000072000815340008153400081534000815340008150C
S3180800008534000815340008000000000000000000000000CD
S31808000098000000001534000815340008153400081534000B
S318080000AB081534000815340008153400081534000815349F
S318080000BE00081534000815340008153400081534000815C0
S318080000D1340008153400081534000815340008153400088E
S318080000E41534000815340008000000000000000000000059
S318080000F700000000000000000000000000000000000000E8
S3180800010A000000000000000000000000000015340008156E
S3180800011D3400080000000000000000000000000000000085
S3180800013000000000000000000000000000000000000000AE
S31808000143000000000000000000000000000000000000009B
S318080001560000000000000000000000000000000000000088
S318080001690000000000000000000000000000000000000075
S3180800017C0000000000000000000000000000000000000062
S3180800018F000000000000000000000000000000000000004F
S318080001A2000000000000000000000000000000000000003C
S318080001B50000000000000000000000000000000000000029
S30D080001C8000000005FF808F1D1
S318080001D080B400AFBD465DF8047B704780B400AFFEE700D5
S318080001E3BF80B400AFFEE700BF80B400AFFEE700BF80B4FA
S318080001F600AFFEE700BF80B400AFBD465DF8047B704780A4
S31808000209B400AFBD465DF8047B704780B400AFBD465DF8A8
S3180800021C047B704780B400AF40F2F813C2F200031B685AD7
S3180800022F1C40F2F813C2F200031A60BD465DF8047B704796
S3180800024200BF80B483B000AF00237B607B6801337B60FBDB
S31808000255E700BF80B483B000AF78604FF46D43CEF200033E
S318080002687A6842F0BF6242F40032DA600C37BD465DF804FF
S3180800027B7B704700BF80B487B000AF786000237B6100235D
S3180800028E3B610F23FB607B68DB78002B42D04FF46D43CEF2
S318080002A1F20003DB68DB4303F4E0631B0A7B617B69C3F113
S318080002B404033B617B69FA6822FA03F3FB607B685B781A03
S318080002C7463B6902FA03F37B617B689B781A46FB68134052
S318080002DA7A6913437B617B691B017B614FF46143CEF2006B
S318080002ED037A68127811467A69D2B20B4483F800234FF493
S318080003006143CEF200037A6812785209D2B27968097801C7
S31808000313F01F01012000FA01F143F8221011E04FF4614367
S31808000326CEF200037A6812785209D2B27968097801F01F36
S3180800033901012000FA01F1203243F822101C37BD465DF82B
S3180800034C047B704780B483B000AF786039604FF46D43CE12
S3180800035FF200033A6822F0604222F07F0279680A439A6077
S318080003720C37BD465DF8047B704780B483B000AF02460B30
S3180800038546FA71BB71BB79002B0CD04FF46D43CEF2000389
S318080003984FF46D42CEF200021169FA790A431A610CE04FA0
S318080003ABF46D43CEF200034FF46D42CEF200021169FA7929
S318080003BED2430A401A610C37BD465DF8047B704700BF8034
S318080003D1B483B000AF78607B68042B0CD14EF21003CEF29B
S318080003E400034EF21002CEF20002126842F004021A600BAA
S318080003F7E04EF21003CEF200034EF21002CEF20002126861
S3180800040A22F004021A600C37BD465DF8047B704700BF802F
S3180800041DB582B000AF78607A684FF40063C4F201039A4232
S3180800043008D10420012100F0BDFE0420002100F0B9FE6095
S31808000443E07A684FF44063C4F201039A4208D10820012137
S3180800045600F0ADFE0820002100F0A9FE50E07A684FF48035
S3180800046953C4F201039A4208D11020012100F09DFE1020A3
S3180800047C002100F099FE40E07A684FF4A053C4F201039A2B
S3180800048F4208D12020012100F08DFE2020002100F089FE7C
S318080004A230E07A684FF4C053C4F201039A4208D140200121
S318080004B52100F07DFE4020002100F079FE20E07A684FF48D
S318080004C8E053C4F201039A4208D18020012100F06DFE80D4
S318080004DB20002100F069FE10E07A684FF40053C4F2010346
S318080004EE9A4209D14FF48070012100F05CFE4FF480700065
S318080005012100F057FE0837BD4680BD80B500AF01200121CD
S3180800051400F04EFE0120002100F04AFE80BD00BF80B48957
S31808000527B000AF786039600023FB6100233B610023BB6166
S3180800053A0023FB6000237B610023BB603B68DB7803F00FED
S3180800054D03FB613B68DB7803F01003002B04D03B689B787D
S31808000560FA691343FB613B681B88DBB2002B44D07B681B55
S31808000573687B610023BB6138E0BB69012202FA03F3FB6038
S318080005863B681B881A46FB6813403B613A69FB689A422654
S31808000599D1BB699B00FB60FB680F2202FA03F3BB60BB6892
S318080005ACDB437A6913407B61FB68FA6902FA03F37A691350
S318080005BF437B613B68DB78282B05D1BB6901229A407B68D9
S318080005D25A6108E03B68DB78482B04D1BB6901229A407B8B
S318080005E5681A61BB690133BB61BB69072BC3D97B687A69E6
S318080005F81A603B681B88FF2B46D97B685B687B610023BB79
S3180800060B613AE0BB690833012202FA03F3FB603B681B883E
S3180800061E1A46FB6813403B613A69FB689A4227D1BB699B70
S3180800063100FB60FB680F2202FA03F3BB60BB68DB437A6988
S3180800064413407B61FB68FA6902FA03F37A6913437B613B5E
S3180800065768DB78282B05D1BB69083301229A407B685A61A4
S3180800066A3B68DB78482B05D1BB69083301229A407B681AD7
S3180800067D61BB690133BB61BB69072BC1D97B687A695A6017
S318080006902437BD465DF8047B704700BF80B483B000AF7813
S318080006A3607B684FF6FF721A807B6802229A707B68042289
S318080006B6DA700C37BD465DF8047B704700BF80B485B000E0
S318080006C9AF78600B467B800023FB737B689A687B88134071
S318080006DC002B02D00123FB7301E00023FB73FB7B18461414
S318080006EF37BD465DF8047B704780B483B000AF78607B6854
S318080007029B689BB218460C37BD465DF8047B704700BF8018
S31808000715B485B000AF78600B467B800023FB737B68DA6851
S318080007287B881340002B02D00123FB7301E00023FB73FB5E
S3180800073B7B18461437BD465DF8047B704780B483B000AFD5
S3180800074E78607B68DB689BB218460C37BD465DF8047B7057
S318080007614700BF80B483B000AF78600B467B807A887B6852
S318080007741A610C37BD465DF8047B704780B483B000AF788A
S31808000787600B467B807A887B685A610C37BD465DF8047BEB
S3180800079A704780B483B000AF786013460A467A807B707B90
S318080007AD78002B03D07A887B681A6102E07A887B685A61D3
S318080007C00C37BD465DF8047B704700BF80B483B000AF78FA
S318080007D3600B467B807A887B68DA600C37BD465DF8047B20
S318080007E6704780B485B000AF78600B467B804FF48033FB0E
S318080007F9607B88FA681343FB607B68FA689A617A887B6844
S3180800080C9A617B68FA689A617B689B69FB607B689B69FB6C
S3180800081F601437BD465DF8047B704700BF80B485B000AFA8
S3180800083202460B46FA71BB710023FB600023C4F201031BFF
S3180800084568FB60FA684FF680731340FB60FB791B01FA6895
S318080008581343FB60BB79FA681343FB600023C4F20103FAB0
S3180800086B681A601437BD465DF8047B704780B483B000AF9B
S3180800087E0346FB711C23C4F22023FA791A600C37BD465DDC
S31808000891F8047B704700BF80B487B000AF78600B46FB70AB
S318080008A400233B610023FB6000237B610023BB607B6800D6
S318080008B72B05DA0023C4F20103DB697B6104E00023C4F25C
S318080008CA01035B687B617B6803F470231B0CBB607B689B3D
S318080008DDB23B617B6803F44013B3F5401F0ED17B6923F0A2
S318080008F070637B610023C4F201030022C4F20102526822A4
S31808000903F070625A6021E07B6803F48013002B0ED0BB68BD
S31808000916032202FA03F3FB60FB68DB437A6913407B617B40
S318080009296943F070637B610DE07B685B0D1B013A6902FA6F
S3180800093C03F3DB437A6913407B617B6943F070637B61FBB3
S3180800094F78002B08D07B685B0D1B013A6902FA03F37A692D
S3180800096213437B617B68002B05DA0023C4F201037A69DABB
S318080009756104E00023C4F201037A695A601C37BD465DF8F7
S31808000988047B704790B484B000AF02460B46FA71BB7100C1
S3180800099B23FB60BB7903F003039B000F2202FA03F3FB6077
S318080009AE0023C4F20103BA799208D2B210460022C4F201CB
S318080009C102B9798908C9B2023152F82110FA68D24311405F
S318080009D4821C43F822100023C4F20103BA799208D2B210B9
S318080009E7460022C4F20102B9798908C9B2023152F82110E2
S318080009FAFC79BA7902F00302920004FA02F21143821C4384
S31808000A0DF822101037BD4690BC704780B483B000AF786063
S31808000A20DC23C4F220237A681A600C37BD465DF8047B70D7
S31808000A334780B400AF4FF48053C4F202034FF48052C4F2DC
S31808000A460202126842F001021A604FF48052C4F202024F44
S31808000A59F48053C4F2020359680023CFF6FF030B40536051
S31808000A6C4FF48053C4F202034FF48052C4F202021268222D
S31808000A7FF0847222F480321A604FF48053C4F202034FF41A
S31808000A928052C4F20202126822F480221A604FF48053C431
S31808000AA5F202034FF48052C4F20202526822F4FE025A60E0
S31808000AB84FF48053C4F202034FF41F029A60BD465DF80492
S31808000ACB7B704700BF80B483B000AF78604FF48053C4F25F
S31808000ADE02034FF48052C4F20202126822F480321A604F18
S31808000AF1F48053C4F202034FF48052C4F20202126822F403
S31808000B0480221A607B68B3F5803F03D0B3F5802F0DD0194A
S31808000B17E04FF48053C4F202034FF48052C4F202021268C3
S31808000B2A42F480321A600CE04FF48053C4F202034FF480C8
S31808000B3D52C4F20202126842F4A0221A6000BF0C37BD469A
S31808000B505DF8047B704700BF80B582B000AF00233B600066
S31808000B6323FB710023BB71312000F0A2FB0346BB713B689D
S31808000B7601333B603B68B3F5A06F02D0BB79002BF0D03113
S31808000B892000F093FB0346002B02D00123FB7101E00023D3
S31808000B9CFB71FB7918460837BD4680BD80B485B000AF0360
S31808000BAF46FB710023FB604FF48053C4F202031B68FB6046
S31808000BC2FB6823F0F803FB60FB79DB00FA681343FB604F95
S31808000BD5F48053C4F20203FA681A601437BD465DF8047B7F
S31808000BE8704700BF80B483B000AF0346FB710023C4F24290
S31808000BFB23FA791A600C37BD465DF8047B704700BF80B405
S31808000C0E85B000AF786039600023FB604FF48053C4F20224
S31808000C21035B68FB60FB6823F47C13FB607A683B68134352
S31808000C34FA681343FB604FF48053C4F20203FA685A60148B
S31808000C4737BD465DF8047B704780B483B000AF0346FB71FC
S31808000C5A6023C4F24223FA791A600C37BD465DF8047B7064
S31808000C6D4700BF80B485B000AF78600023FB604FF48053DC
S31808000C80C4F202035B68FB60FB6823F00303FB60FA687BC6
S31808000C93681343FB604FF48053C4F20203FA685A601437EF
S31808000CA6BD465DF8047B704700BF80B400AF4FF48053C423
S31808000CB9F202035B68DBB203F00C03DBB21846BD465DF88E
S31808000CCC047B704780B485B000AF78600023FB604FF480A0
S31808000CDF53C4F202035B68FB60FB6823F0F003FB60FA68A2
S31808000CF27B681343FB604FF48053C4F20203FA685A60144C
S31808000D0537BD465DF8047B704700BF80B485B000AF786059
S31808000D180023FB604FF48053C4F202035B68FB60FB6823C7
S31808000D2BF4E063FB60FA687B681343FB604FF48053C4F253
S31808000D3E0203FA685A601437BD465DF8047B704700BF805B
S31808000D51B485B000AF78600023FB604FF48053C4F20203C2
S31808000D645B68FB60FB6823F46053FB607B68DB00FA681395
S31808000D7743FB604FF48053C4F20203FA685A601437BD4682
S31808000D8A5DF8047B704780B483B000AF02460B46FA71BBE8
S31808000D9D71BB79002B0ED041F20903C4F2020341F209024F
S31808000DB0C4F202021278D1B2FA790A43D2B21A700FE0415D
S31808000DC3F20903C4F2020341F20902C4F202021278D1B251
S31808000DD6FA79D243D2B20A40D2B21A700C37BD465DF804F9
S31808000DE97B704780B483B000AF7860D823C4F242237A68D1
S31808000DFC1A600C37BD465DF8047B704780B485B000AF78FB
S31808000E0F600023FB604FF48053C4F202035B68FB60FB6892
S31808000E2223F44043FB60FA687B681343FB604FF48053C4EA
S31808000E35F20203FA685A601437BD465DF8047B704700BFF1
S31808000E4880B483B000AF0346FB714FF48153C4F2020300EC
S31808000E5B221A704FF48153C4F2020300221A70FB79012BAC
S31808000E6E02D0042B07D00DE04FF48153C4F2020301221A8F
S31808000E817006E04FF48153C4F2020305221A7000BF0C3775
S31808000E94BD465DF8047B704780B483B000AF0346FB714F95
S31808000EA7F49063C4F24223FA791A600C37BD465DF8047B21
S31808000EBA704780B483B000AF78604FF48053C4F202034F52
S31808000ECDF48052C4F20202116A7A680A431A620C37BD4618
S31808000EE05DF8047B704700BF80B483B000AF0346FB71409C
S31808000EF3F23C43C4F24223FA791A600C37BD465DF8047B4B
S31808000F06704780B487B000AF786000237B6100233B610063
S31808000F1923FB600023BB604FF48053C4F202035B6803F074
S31808000F2C0C037B617B69042B0AD0082B0FD0002B4CD17AF8
S31808000F3F684FF49053C0F27A0313604CE07A684FF490532D
S31808000F52C0F27A03136045E04FF48053C4F202035B680320
S31808000F65F470133B614FF48053C4F202035B6803F480331A
S31808000F78FB603B699B0C02333B61FB68002B09D13A694F87
S31808000F8BF41063C0F23D0303FB02F27B681A601CE04FF45E
S31808000F9E8053C4F202035B6803F40033002B09D03A694FC1
S31808000FB1F41063C0F23D0303FB02F27B681A6009E03A69EB
S31808000FC44FF49053C0F27A0303FB02F27B681A6007E0067B
S31808000FD7E07A684FF49053C0F27A03136000BF4FF480539A
S31808000FEAC4F202035B6803F0F0037B617B691B097B614082
S31808000FFDF2D013C2F200037A6913441B78DBB2BB607B68EF
S318080010101A68BB68DA407B685A604FF48053C4F202035B37
S318080010236803F4E0637B617B691B0A7B6140F2D013C2F280
S3180800103600037A6913441B78DBB2BB607B685A68BB68DA7F
S31808001049407B689A604FF48053C4F202035B6803F460532B
S3180800105C7B617B69DB0A7B6140F2D013C2F200037A691330
S3180800106F441B78DBB2BB607B685A68BB68DA407B68DA60E2
S318080010824FF48053C4F202035B6803F440437B617B699BE4
S318080010950B7B6140F2E013C2F200037A6913441B78DBB21D
S318080010A8BB607B68DA68BB68B2FBF3F27B681A611C37BDC4
S318080010BB465DF8047B704700BF80B483B000AF78600B4645
S318080010CEFB70FB78002B0CD04FF48053C4F202034FF48088
S318080010E152C4F2020251697A680A435A610CE04FF480533C
S318080010F4C4F202034FF48052C4F2020251697A68D2430A96
S31808001107405A610C37BD465DF8047B704780B483B000AFE5
S3180800111A78600B46FB70FB78002B0CD04FF48053C4F202D8
S3180800112D034FF48052C4F2020291697A680A439A610CE0BF
S318080011404FF48053C4F202034FF48052C4F2020291697A7A
S3180800115368D2430A409A610C37BD465DF8047B704780B4B4
S3180800116683B000AF78600B46FB70FB78002B0CD04FF480B5
S3180800117953C4F202034FF48052C4F20202D1697A680A430F
S3180800118CDA610CE04FF48053C4F202034FF48052C4F2027D
S3180800119F02D1697A68D2430A40DA610C37BD465DF8047B5D
S318080011B2704780B483B000AF78600B46FB70FB78002B0C11
S318080011C5D04FF48053C4F202034FF48052C4F20202D16860
S318080011D87A680A43DA600CE04FF48053C4F202034FF4800D
S318080011EB52C4F20202D1687A68D2430A40DA600C37BD46DD
S318080011FE5DF8047B704780B483B000AF78600B46FB70FBA0
S3180800121178002B0CD04FF48053C4F202034FF48052C4F2A1
S31808001224020211697A680A431A610CE04FF48053C4F202C7
S31808001237034FF48052C4F2020211697A68D2430A401A618E
S3180800124A0C37BD465DF8047B704780B483B000AF0346FB58
S3180800125D714FF48863C4F24223FA791A600C37BD465DF82E
S31808001270047B704780B483B000AF0346FB714C23C4F242F5
S3180800128323FA791A600C37BD465DF8047B704700BF80B476
S3180800129683B000AF0346FB7141F20703C4F20203FA791A1B
S318080012A9700C37BD465DF8047B704780B487B000AF034680
S318080012BCFB710023FB6000237B610023FB74FB795B09DBE3
S318080012CFB2FB60FB68012B06D14FF48053C4F202031B6837
S318080012E27B610FE0FB68022B06D14FF48053C4F202031BCD
S318080012F56A7B6105E04FF48053C4F202035B6A7B61FB79C7
S3180800130803F01F03FB60FB687A6922FA03F303F001030005
S3180800131B2B02D00123FB7401E00023FB74FB7C18461C3786
S3180800132EBD465DF8047B704700BF80B400AF4FF48053C494
S31808001341F202034FF48052C4F20202526A42F080725A6229
S31808001354BD465DF8047B704780B485B000AF0346FB71001D
S3180800136723FB734FF48053C4F202039A68FB791340002B0F
S3180800137A02D00123FB7301E00023FB73FB7B18461437BDA0
S3180800138D465DF8047B704780B483B000AF0346FB7141F270
S318080013A00A03C4F20203FA791A700C37BD465DF8047B70DD
S318080013B34780B582B000AF78607A684FF43053C4F2010382
S318080013C69A420AD14FF400600121FFF7F0FE4FF400600003
S318080013D921FFF7EBFE0BE17B68B3F1804F08D10120012195
S318080013ECFFF70AFF01200021FFF706FFFEE07A684FF48021
S318080013FF63C4F200039A4208D102200121FFF7FAFE0220A8
S318080014120021FFF7F6FEEEE07A684FF40063C4F200039A05
S318080014254208D104200121FFF7EAFE04200021FFF7E6FE48
S31808001438DEE07A684FF44063C4F200039A4208D108200176
S3180800144B21FFF7DAFE08200021FFF7D6FECEE07A684FF4AB
S3180800145E8053C4F200039A4208D110200121FFF7CAFE100C
S31808001471200021FFF7C6FEBEE07A684FF4A053C4F20003F0
S318080014849A4208D120200121FFF7BAFE20200021FFF7B675
S31808001497FEAEE07A684FF45053C4F201039A420AD14FF42C
S318080014AA00500121FFF781FE4FF400500021FFF77CFE9C7A
S318080014BDE07A684FF49843C4F201039A420AD14FF400205A
S318080014D00121FFF76FFE4FF400200021FFF76AFE8AE07AB0
S318080014E3684FF4A043C4F201039A420AD14FF480100121F4
S318080014F6FFF75DFE4FF480100021FFF758FE78E07A684FBB
S31808001509F4A843C4F201039A420AD14FF400100121FFF706
S3180800151C4BFE4FF400100021FFF746FE66E07A684FF4C08C
S3180800152F53C4F200039A4208D140200121FFF762FE4020A2
S318080015420021FFF75EFE56E07A684FF4E053C4F200039A34
S318080015554208D180200121FFF752FE80200021FFF74EFE4F
S3180800156846E07A684FF40053C4F200039A420AD14FF48091
S3180800157B700121FFF741FE4FF480700021FFF73CFE34E0F0
S3180800158E7A684FF48043C4F201039A420AD14FF4803001EF
S318080015A121FFF707FE4FF480300021FFF702FE22E07A681F
S318080015B44FF48843C4F201039A420AD14FF400300121FF03
S318080015C7F7F5FD4FF400300021FFF7F0FD10E07A684FF48E
S318080015DA9043C4F201039A4209D14FF480200121FFF7E3CF
S318080015EDFD4FF480200021FFF7DEFD0837BD4680BD00BFCD
S3180800160080B485B000AF786039600023FB817B681B88FB20
S31808001613817A684FF43053C4F201039A421FD07A684FF4E3
S318080016265053C4F201039A4218D07B68B3F1804F14D07ACE
S31808001639684FF48063C4F200039A420DD07A684FF4006308
S3180800164CC4F200039A4206D07A684FF44063C4F200039AF7
S3180800165F4208D1FB8923F07003FB813B685A88FB8913436A
S31808001672FB817A684FF48053C4F200039A420FD07A684F3E
S31808001685F4A053C4F200039A4208D0FB8923F44073FB8126
S318080016983B68DA88FB891343FB817B68FA891A803B689A99
S318080016AB887B689A853B681A887B681A857A684FF4305325
S318080016BEC4F201039A421BD07A684FF45053C4F201039A6E
S318080016D14214D07A684FF48043C4F201039A420DD07A6895
S318080016E44FF48843C4F201039A4206D07A684FF49043C4AF
S318080016F7F201039A4204D13B681B7A1A467B681A867B682D
S3180800170A01229A821437BD465DF8047B704780B485B0003D
S3180800171DAF7860396000237B810023FB810023BB817B688B
S318080017301B8C9BB223F001039AB27B681A847B681B8CFB3B
S31808001743817B689B88BB817B681B8B7B817B8923F07003B3
S318080017567B817B8923F003037B813B681A887B8913437B43
S3180800176981FB8923F00203FB813B681A89FB891343FB812A
S3180800177C3B685A88FB891343FB817A684FF43053C4F20112
S3180800178F039A421BD07A684FF45053C4F201039A4214D02D
S318080017A27A684FF48043C4F201039A420DD07A684FF4881E
S318080017B543C4F201039A4206D07A684FF49043C4F20103B2
S318080017C89A4223D1FB8923F00803FB813B685A89FB8913F5
S318080017DB43FB81FB8923F00403FB813B689A88FB89134375
S318080017EEFB81BB8923F48073BB81BB8923F40073BB813B8F
S31808001801689A89BB891343BB813B68DA89BB891343BB8189
S318080018147B68BA899A807B687A891A833B68DA887B689A6E
S31808001827867B68FA891A841437BD465DF8047B704780B409
S3180800183A85B000AF7860396000237B810023FB810023BB9C
S3180800184D817B681B8C9BB223F010039AB27B681A847B684C
S318080018601B8CFB817B689B88BB817B681B8B7B817B892356
S31808001873F4E0437B817B8923F440737B813B681B881B0214
S318080018869AB27B8913437B81FB8923F02003FB813B681BAB
S31808001899891B019AB2FB891343FB813B685B881B019AB2F9
S318080018ACFB891343FB817A684FF43053C4F201039A420681
S318080018BFD07A684FF45053C4F201039A422BD1FB8923F047
S318080018D28003FB813B685B891B019AB2FB891343FB81FBB6
S318080018E58923F04003FB813B689B881B019AB2FB8913437F
S318080018F8FB81BB8923F48063BB81BB8923F40063BB813BA4
S3180800190B689B899B009AB2BB891343BB813B68DB899B00D0
S3180800191E9AB2BB891343BB817B68BA899A807B687A891A46
S31808001931833B68DA887B681A877B68FA891A841437BD4637
S318080019445DF8047B704700BF80B485B000AF7860396000AF
S31808001957237B810023FB810023BB817B681B8C9BB223F464
S3180800196A80739AB27B681A847B681B8CFB817B689B88BBD5
S3180800197D817B689B8B7B817B8923F070037B817B8923F026
S3180800199003037B813B681A887B8913437B81FB8923F400FE
S318080019A373FB813B681B891B029AB2FB891343FB813B688B
S318080019B65B881B029AB2FB891343FB817A684FF43053C402
S318080019C9F201039A4206D07A684FF45053C4F201039A42F7
S318080019DC2BD1FB8923F40063FB813B685B891B029AB2FB89
S318080019EF891343FB81FB8923F48063FB813B689B881B029F
S31808001A029AB2FB891343FB81BB8923F48053BB81BB892350
S31808001A15F40053BB813B689B891B019AB2BB891343BB8128
S31808001A283B68DB891B019AB2BB891343BB817B68BA899A98
S31808001A3B807B687A899A833B68DA887B689A877B68FA8998
S31808001A4E1A841437BD465DF8047B704700BF80B485B000D8
S31808001A61AF786039600023BB8100237B810023FB817B6844
S31808001A741B8C9BB223F480539AB27B681A847B681B8C7BA1
S31808001A87817B689B88FB817B689B8BBB81BB8923F4E04378
S31808001A9ABB81BB8923F44073BB813B681B881B029AB2BB3B
S31808001AAD891343BB817B8923F400537B813B681B891B032E
S31808001AC09AB27B8913437B813B685B881B039AB27B89135C
S31808001AD3437B817A684FF43053C4F201039A4206D07A68BD
S31808001AE64FF45053C4F201039A420AD1FB8923F48043FB2F
S31808001AF9813B689B899B019AB2FB891343FB817B68FA89E0
S31808001B0C9A807B68BA899A833B68DA887B68A3F840207BFD
S31808001B1F687A891A841437BD465DF8047B704700BF80B5CF
S31808001B3282B000AF786039603B681B88002B0FD13B6859F3
S31808001B45883B689A883B681B89786801F066F93B68DB88B5
S31808001B587868194601F016F836E03B681B88042B0FD13B88
S31808001B6B6859883B689A883B681B89786801F08EF93B6809
S31808001B7EDB887868194601F01EF822E03B681B88082B0F13
S31808001B91D13B6859883B689A883B681B89786801F0C0F948
S31808001BA43B68DB887868194601F028F80EE03B6859883B1D
S31808001BB7689A883B681B89786801F0F2F93B68DB8878689A
S31808001BCA194601F034F80837BD4680BD00BF80B584B000D7
S31808001BDDAF786039600023FB810123BB813B685B88002B17
S31808001BF002D10223FB8101E00023FB813B689B88012B02EC
S31808001C03D10223BB8101E00123BB813B681B88002B1CD1EF
S31808001C163B6859883B689A883B681B89786801F0FCF83B1D
S31808001C2968DB887868194600F0ACFF3B681B89F989BA89E9
S31808001C3C786801F02BF93B68DB887868194600F0BBFF1B88
S31808001C4FE03B6859883B689A883B681B89786801F01BF91F
S31808001C623B68DB887868194600F0ABFF3B681B89F989BAFF
S31808001C7589786801F0D2F83B68DB887868194600F082FF74
S31808001C881037BD4680BD00BF80B483B000AF786039603B33
S31808001C9B681A883B685B8813439AB23B689B8813439AB28E
S31808001CAE3B68DB8813439AB23B681B8913439AB23B685B86
S31808001CC18913439AB23B689B8913439AB27B68A3F844208C
S31808001CD40C37BD465DF8047B704700BF80B483B000AF78D1
S31808001CE7607B684FF6FF729A807B6800221A807B68002225
S31808001CFADA807B6800225A807B6800221A720C37BD465D5C
S31808001D0DF8047B704700BF80B483B000AF78607B680022D5
S31808001D201A807B6800225A807B6800229A807B680022DA2B
S31808001D33807B6800221A817B6800225A817B6800229A816F
S31808001D467B680022DA810C37BD465DF8047B704700BF800C
S31808001D59B483B000AF78607B6800221A807B6800225A807D
S31808001D6C7B6801229A807B680022DA807B6800221A810C2B
S31808001D7F37BD465DF8047B704780B483B000AF78607B68AD
S31808001D9200221A807B6800225A807B6800229A807B680093
S31808001DA522DA807B6800221A817B6800225A817B6800221C
S31808001DB89A810C37BD465DF8047B704780B483B000AF7890
S31808001DCB600B46FB70FB78002B08D07B681B889BB243F05F
S31808001DDE01039AB27B681A8007E07B681B889BB223F00149
S31808001DF1039AB27B681A800C37BD465DF8047B704700BF75
S31808001E0480B483B000AF78600B46FB70FB78002B0CD07B1E
S31808001E1768B3F844309BB26FEA43436FEA53439AB27B68D9
S31808001E2AA3F8442009E07B68B3F844309BB2C3F30E039AFF
S31808001E3DB27B68A3F844200C37BD465DF8047B704700BF60
S31808001E5080B483B000AF786013460A467A807B707B780002
S31808001E632B08D07B689B899AB27B8813439AB27B689A8165
S31808001E7609E07B689B899AB27B88DB439BB213409AB27B87
S31808001E89689A810C37BD465DF8047B704700BF80B483B0BE
S31808001E9C00AF78600B467B807B687A889A820C37BD465DAE
S31808001EAFF8047B704780B483B000AF786013460A467A8053
S31808001EC23B807A883B8813439AB27B68A3F848200C37BDF7
S31808001ED5465DF8047B704780B483B000AF786013460A4684
S31808001EE87A807B707B78002B08D07B689B899AB27B881395
S31808001EFB439AB27B689A8109E07B689B899AB27B88DB43DC
S31808001F0E9BB213409AB27B689A810C37BD465DF8047B703E
S31808001F214700BF80B483B000AF78607B681B899BB223F0C4
S31808001F3407039AB27B681A810C37BD465DF8047B704700E7
S31808001F47BF80B582B000AF78600B467B807B88786819463E
S31808001F5A00F0C9F87B681B899BB243F007039AB27B681A5B
S31808001F6D810837BD4680BD80B584B000AFF86079813A812E
S31808001F80FB807B89602B07D13A89FB88F86811460122003E
S31808001F93F081FF06E03A89FB88F8681146012200F03DFF8B
S31808001FA67B89F868194600F0A0F8FB681B899BB243F00741
S31808001FB9039AB2FB681A811037BD4680BD00BF80B586B009
S31808001FCC00AFF86079813A81FB800023FB8279893A89FB5D
S31808001FDF88F86800F031F8FB681B89FB82FB8A23F00703BA
S31808001FF2FB82FB8A43F00703FB82FB8A23F07003FB82FB8F
S318080020058A43F07003FB82FB68FA8A1A811837BD4680BDFC
S3180800201880B584B000AFF86079813A81FB8079893A89FB47
S3180800202B88F86800F00BF8FB681B899BB243F480439AB21F
S3180800203EFB681A811037BD4680BD80B487B000AFF8607911
S31808002051813A81FB800023FB82FB681B89FB82FB8ADBB281
S31808002064FB82FB881B029AB23B8913439AB27B8913439A98
S31808002077B2FB8A1343FB82FB68FA8A1A811C37BD465DF811
S3180800208A047B704700BF80B483B000AF786013460A467A2F
S3180800209D803B807B687A881A857B683A889A820C37BD465C
S318080020B05DF8047B704700BF80B485B000AF78600B467B09
S318080020C3800023FB817B681B88FB81FB8923F07003FB8155
S318080020D6FA897B881343FB817B68FA891A801437BD465DE6
S318080020E9F8047B704700BF80B485B000AF78600B467B80AD
S318080020FC0023FB817B681B89FB81FB8923F07003FB81FAA1
S3180800210F897B881343FB817B68FA891A811437BD465DF8AD
S31808002122047B704700BF80B487B000AFF86079813A81FB85
S31808002135800023FB820023BB8200237B82FB681B89FB8265
S31808002148FB681B8BBB82FB681B8C7B82FB8A23F00703FB8C
S3180800215B82FA8A7B891343FB82BB8A23F4407323F003035E
S3180800216EBB82BB8A43F4807343F00103BB827B8A23F022F6
S31808002181037B82FB881B019AB23B8913439AB27B8A134391
S318080021947B82FB68FA8A1A81FB68BA8A1A83FB687A8A1AE6
S318080021A7841C37BD465DF8047B704700BF80B485B000AFDB
S318080021BA78600B467B800023FB817B681B8BFB81FB892395
S318080021CDF07003FB81FA897B881343FB817B68FA891A83B7
S318080021E01437BD465DF8047B704700BF80B485B000AF78B6
S318080021F3600B467B800023FB817B681B8BFB81FB8923F4E0
S31808002206E043FB817B881B029AB2FB891343FB817B68FA79
S31808002219891A831437BD465DF8047B704700BF80B485B07D
S3180800222C00AF78600B467B800023FB817B689B8BFB81FB9F
S3180800223F8923F07003FB81FA897B881343FB817B68FA8935
S318080022529A831437BD465DF8047B704700BF80B485B0004D
S31808002265AF78600B467B800023FB817B689B8BFB81FB89DD
S3180800227823F4E043FB817B881B029AB2FB891343FB817B52
S3180800228B68FA899A831437BD465DF8047B704700BF80B45E
S3180800229E83B000AF78600B46FB70FB78002B08D07B681B35
S318080022B1889BB243F080039AB27B681A8007E07B681B884B
S318080022C49BB223F080039AB27B681A800C37BD465DF804AE
S318080022D77B704700BF80B483B000AF78600B46FB70FB78D8
S318080022EA002B08D07B689B889BB243F004039AB27B689A7A
S318080022FD8007E07B689B889BB223F004039AB27B689A80A3
S318080023100C37BD465DF8047B704700BF80B483B000AF788E
S31808002323600B46FB70FB78002B08D07B689B889BB243F081
S3180800233608039AB27B689A8007E07B689B889BB223F008DD
S31808002349039AB27B689A800C37BD465DF8047B704700BF97
S3180800235C80B483B000AF78600B46FB70FB78002B08D07BC5
S3180800236F689B889BB243F001039AB27B689A8007E07B682B
S318080023829B889BB223F001039AB27B689A800C37BD465DC7
S31808002395F8047B704700BF80B485B000AF78600B467B80FE
S318080023A80023FB817B681B8BFB81FB8923F00803FB81FA58
S318080023BB897B881343FB817B68FA891A831437BD465DF8FD
S318080023CE047B704700BF80B485B000AF78600B467B8000BD
S318080023E123FB817B681B8BFB81FB8923F40063FB817B88BA
S318080023F41B029AB2FB891343FB817B68FA891A831437BDFE
S31808002407465DF8047B704700BF80B485B000AF78600B46E3
S3180800241A7B800023FB817B689B8BFB81FB8923F00803FBE5
S3180800242D81FA897B881343FB817B68FA899A831437BD46E4
S318080024405DF8047B704700BF80B485B000AF78600B467B75
S31808002453800023FB817B689B8BFB81FB8923F40063FB814A
S318080024667B881B029AB2FB891343FB817B68FA899A8314FC
S3180800247937BD465DF8047B704700BF80B485B000AF7860CE
S3180800248C0B467B800023FB817B681B8BFB81FB8923F004A4
S3180800249F03FB81FA897B881343FB817B68FA891A831437F7
S318080024B2BD465DF8047B704700BF80B485B000AF78600BC1
S318080024C5467B800023FB817B681B8BFB81FB8923F4806393
S318080024D8FB817B881B029AB2FB891343FB817B68FA891A25
S318080024EB831437BD465DF8047B704700BF80B485B000AF9D
S318080024FE78600B467B800023FB817B689B8BFB81FB8923CE
S31808002511F00403FB81FA897B881343FB817B68FA899A835B
S318080025241437BD465DF8047B704700BF80B485B000AF786E
S31808002537600B467B800023FB817B689B8BFB81FB8923F418
S3180800254A8063FB817B881B029AB2FB891343FB817B68FA72
S3180800255D899A831437BD465DF8047B704700BF80B485B0B6
S3180800257000AF78600B467B800023FB817B681B8BFB81FBD8
S318080025838923F08003FB81FA897B881343FB817B68FA89DE
S318080025961A831437BD465DF8047B704700BF80B485B00086
S318080025A9AF78600B467B800023FB817B681B8BFB81FB8916
S318080025BCC3F30E03FB817B881B029AB2FB891343FB817B7E
S318080025CF68FA891A831437BD465DF8047B704700BF80B497
S318080025E285B000AF78600B467B800023FB817B689B8BFB2D
S318080025F581FB8923F08003FB81FA897B881343FB817B6873
S31808002608FA899A831437BD465DF8047B704700BF80B485C0
S3180800261BB000AF78600B467B800023FB817B689B8BFB81F7
S3180800262EFB89C3F30E03FB817B881B029AB2FB891343FB83
S31808002641817B68FA899A831437BD465DF8047B704700BFDC
S3180800265480B485B000AF78600B467B800023FB817B681B8C
S318080026678CFB81FB8923F00203FB81FA897B881343FB81DA
S3180800267A7B68FA891A841437BD465DF8047B704700BF8023
S3180800268DB485B000AF78600B467B800023FB817B681B8C47
S318080026A0FB81FB8923F00803FB81FA897B881343FB817BAC
S318080026B368FA891A841437BD465DF8047B704700BF80B4B1
S318080026C685B000AF78600B467B800023FB817B681B8CFBC7
S318080026D981FB8923F02003FB817B881B019AB2FB891343E4
S318080026ECFB817B68FA891A841437BD465DF8047B70470074
S318080026FFBF80B485B000AF78600B467B800023FB817B683D
S318080027121B8CFB81FB8923F08003FB817B881B019AB2FB87
S31808002725891343FB817B68FA891A841437BD465DF8047B12
S31808002738704700BF80B485B000AF78600B467B800023FBB0
S3180800274B817B681B8CFB81FB8923F40073FB817B881B023C
S3180800275E9AB2FB891343FB817B68FA891A841437BD465D09
S31808002771F8047B704700BF80B485B000AF78600B467B801E
S318080027840023FB817B681B8CFB81FB8923F40063FB817B9A
S31808002797881B029AB2FB891343FB817B68FA891A8414378B
S318080027AABD465DF8047B704700BF80B485B000AF78600BC6
S318080027BD467B800023FB817B681B8CFB81FB8923F4005327
S318080027D0FB817B881B039AB2FB891343FB817B68FA891A29
S318080027E3841437BD465DF8047B704700BF80B485B000AFA1
S318080027F6786013460A467A803B800023FB817B88012202C5
S31808002809FA03F3FB817B681B8C9AB2FB89DB439BB213402A
S3180800281C9AB27B681A847B681B8C9AB239887B8801FA0336
S3180800282FF39BB213439AB27B681A841437BD465DF8047B03
S31808002842704780B485B000AF786013460A467A803B800070
S3180800285523FB817B88042202FA03F3FB817B681B8C9AB256
S31808002868FB89DB439BB213409AB27B681A847B681B8C9A1C
S3180800287BB239887B8801FA03F39BB213439AB27B681A8465
S3180800288E1437BD465DF8047B704780B485B000AF7860134D
S318080028A1460A467A803B800023FB6000237B817B68FB60F0
S318080028B4FB681833FB607B88012202FA03F37B817B681BE8
S318080028C78C9AB27B89DB439BB213409AB27B681A847B8886
S318080028DA002B02D07B88082B12D17B885B089BB2FA68139F
S318080028ED44FB60FB68FA68126822F070021A60FB68FA6829
S3180800290011683A880A431A6015E07B88043B9BB25B089B32
S31808002913B2FA681344FB60FB68FA68126822F4E0421A60EC
S31808002926FB68FA6811683A88120292B20A431A601437BD69
S31808002939465DF8047B704780B483B000AF78600B46FB7002
S3180800294CFB78002B08D07B681B889BB243F002039AB27B22
S3180800295F681A8007E07B681B889BB223F002039AB27B6854
S318080029721A800C37BD465DF8047B704700BF80B483B000B3
S31808002985AF78600B467B807B88002B08D07B681B889BB285
S3180800299843F004039AB27B681A8007E07B681B889BB2233E
S318080029ABF004039AB27B681A800C37BD465DF8047B70477A
S318080029BE00BF80B483B000AF78600B46FB70FB78002B08E9
S318080029D1D07B689B889BB243F080039AB27B689A8007E0DC
S318080029E47B689B889BB223F080039AB27B689A800C37BDA0
S318080029F7465DF8047B704700BF80B483B000AF78600B46F0
S31808002A0A7B807B681B889BB223F008039AB27B681A807B7B
S31808002A1D681B889AB27B8813439AB27B681A800C37BD46D9
S31808002A305DF8047B704700BF80B483B000AF78600B467B81
S31808002A43807B689B889BB223F070039AB27B689A807B68ED
S31808002A569B889AB27B8813439AB27B689A800C37BD465DAB
S31808002A69F8047B704700BF80B483B000AF78600B467B8025
S31808002A7C7B681B899BB223F007039AB27B681A817B681B80
S31808002A8F899AB27B8813439AB27B681A810C37BD465DF893
S31808002AA2047B704700BF80B483B000AF78600B467B807B69
S31808002AB5681B899BB223F080039AB27B681A817B681B89C0
S31808002AC89AB27B8813439AB27B681A810C37BD465DF804DF
S31808002ADB7B704700BF80B483B000AF78600B467B807B68CC
S31808002AEE7A889A840C37BD465DF8047B704780B483B0006F
S31808002B01AF78600B467B807B687A889A850C37BD465DF841
S31808002B14047B704780B483B000AF78600B467B807B687AD3
S31808002B27889A860C37BD465DF8047B704780B483B000AFFE
S31808002B3A78600B467B807B687A881A870C37BD465DF80431
S31808002B4D7B704780B483B000AF78600B467B807B687A8816
S31808002B609A870C37BD465DF8047B704780B483B000AF78D4
S31808002B73600B467B807B687A88A3F840200C37BD465DF81A
S31808002B86047B704700BF80B483B000AF78600B467B807B84
S31808002B99681B8B9BB223F00C039AB27B681A837B681B8B49
S31808002BAC9AB27B8813439AB27B681A830C37BD465DF804F8
S31808002BBF7B704700BF80B483B000AF78600B467B807B68E7
S31808002BD21B8B9BB223F440639AB27B681A837B681B8B9A46
S31808002BE5B27B881B029BB213439AB27B681A830C37BD4648
S31808002BF85DF8047B704700BF80B483B000AF78600B467BB8
S31808002C0B807B689B8B9BB223F00C039AB27B689A837B6881
S31808002C1E9B8B9AB27B8813439AB27B689A830C37BD465DDB
S31808002C31F8047B704700BF80B483B000AF78600B467B805B
S31808002C447B689B8B9BB223F440639AB27B689A837B689B95
S31808002C578B9AB27B881B029BB213439AB27B689A830C3733
S31808002C6ABD465DF8047B704700BF80B483B000AF78600B03
S31808002C7D467B807B681B889BB223F440739AB27B681A808F
S31808002C907B681B889AB27B8813439AB27B681A800C37BD2F
S31808002CA3465DF8047B704700BF80B483B000AF78607B68AF
S31808002CB69B8E9BB218460C37BD465DF8047B704700BF8019
S31808002CC9B483B000AF78607B681B8F9BB218460C37BD46FE
S31808002CDC5DF8047B704700BF80B483B000AF78607B689B21
S31808002CEF8F9BB218460C37BD465DF8047B704700BF80B4C6
S31808002D0283B000AF78607B68B3F840309BB218460C37BD4D
S31808002D15465DF8047B704780B483B000AF78607B689B8CD4
S31808002D289BB218460C37BD465DF8047B704700BF80B48398
S31808002D3BB000AF78607B681B8D9BB218460C37BD465DF86F
S31808002D4E047B704700BF80B485B000AF78600B467B800033
S31808002D6123FB737B681B8A9AB27B8813409BB2002B02D04C
S31808002D740123FB7301E00023FB73FB7B18461437BD465DBB
S31808002D87F8047B704780B483B000AF78600B467B807B88C0
S31808002D9ADB439AB27B681A820C37BD465DF8047B704780DE
S31808002DADB485B000AF78600B467B800023FB730023BB8159
S31808002DC000237B817B681B8A9AB27B881340BB817B689BEF
S31808002DD3899AB27B8813407B81BB89002B05D07B89002B45
S31808002DE602D00123FB7301E00023FB73FB7B18461437BD1A
S31808002DF9465DF8047B704780B483B000AF78600B467B80AE
S31808002E0C7B88DB439AB27B681A820C37BD465DF8047B702F
S31808002E1F4780B487B000AFF86079813A81FB800023FB8209
S31808002E320023BB82FB681B8C9BB223F001039AB2FB681AE8
S31808002E4584FB681B8BFB82FB681B8CBB82FB8A23F0F3038D
S31808002E58FB82FB881B019AB23B8913439AB2FB8A1343FBB5
S31808002E6B82BB8A23F00203BB827A89BB8A13439BB243F00C
S31808002E7E0103BB82FB68FA8A1A83FB68BA8A1A841C37BD19
S31808002E91465DF8047B704780B487B000AFF86079813A8128
S31808002EA4FB800023FB820023BB8200237B82FB681B8C9BCD
S31808002EB7B223F010039AB2FB681A84FB681B8BFB82FB68EC
S31808002ECA1B8CBB827B891B017B82FB8A23F440731B051B5C
S31808002EDD0DFB82FB881B039AB2FB8A1343FB823B891B0224
S31808002EF09AB2FB8A1343FB82BB8A23F02003BB827A8ABBA6
S31808002F038A13439BB243F01003BB82FB68FA8A1A83FB6816
S31808002F16BA8A1A841C37BD465DF8047B704780B487B0006C
S31808002F29AFF86079813A81FB800023FB820023BB8200232D
S31808002F3C7B82FB681B8C9BB223F480739AB2FB681A84FBCE
S31808002F4F689B8BFB82FB681B8CBB827B891B027B82FB8A6C
S31808002F6223F0F303FB82FB881B019AB23B8913439AB2FB7C
S31808002F758A1343FB82BB8A23F40073BB827A8ABB8A134333
S31808002F889BB243F48073BB82FB68FA8A9A83FB68BA8A1AAF
S31808002F9B841C37BD465DF8047B704700BF80B487B000AFD7
S31808002FAEF86079813A81FB800023FB820023BB8200237BDC
S31808002FC182FB681B8C9BB223F480539AB2FB681A84FB687C
S31808002FD49B8BFB82FB681B8CBB827B891B037B82FB8A232B
S31808002FE7F440731B051B0DFB823B891B029AB2FB8A134355
S31808002FFAFB82FB881B039AB2FB8A1343FB82BB8A23F40098
S3180800300D53BB827A8ABB8A13439BB243F48053BB82FB687C
S31808003020FA8A9A83FB68BA8A1A841C37BD465DF8047B700F
S318080030334780B500AF4FF48053C4F202034FF48052C4F2B5
S318080030460202126842F001021A604FF48052C4F202024F1E
S31808003059F48053C4F2020359680023CFF6FF030B4053602B
S3180800306C4FF48053C4F202034FF48052C4F2020212682207
S3180800307FF0847222F480321A604FF48053C4F202034FF4F4
S318080030928052C4F20202126822F480221A604FF48053C40B
S318080030A5F202034FF48052C4F20202526822F4FE025A60BA
S318080030B84FF48053C4F202034FF41F029A6000F09FF880C1
S318080030CBBD80B485B000AF0023FB600023BB6000237B6055
S318080030DE4FF48053C4F202035B6803F00C03FB60FB680479
S318080030F12B0DD0082B15D0002B5BD140F2E413C2F2000367
S318080031044FF49052C0F27A021A605BE040F2E413C2F200C5
S31808003117034FF49052C0F27A021A6051E04FF48053C4F2CA
S3180800312A02035B6803F47013BB604FF48053C4F202035BFB
S3180800313D6803F480337B60BB689B0C0233BB607B68002B5C
S318080031500CD1BA684FF41063C0F23D0303FB02F240F2E4AF
S3180800316313C2F200031A6022E04FF48053C4F202035B6871
S3180800317603F40033002B0CD0BA684FF41063C0F23D03033A
S31808003189FB02F240F2E413C2F200031A600CE0BA684FF48B
S3180800319C9053C0F27A0303FB02F240F2E413C2F200031A14
S318080031AF600AE009E040F2E413C2F200034FF49052C0F215
S318080031C27A021A6000BF4FF48053C4F202035B6803F0F0C0
S318080031D5031A0940F2E813C2F200039B5CDBB2FB6040F2BE
S318080031E8E413C2F200031A68FB68DA4040F2E413C2F2003C
S318080031FB031A601437BD465DF8047B704780B500AF00F089
S3180800320E02F880BD00BF80B483B000AF00237B6000233B37
S31808003221604FF48053C4F202034FF48052C4F20202126812
S3180800323442F480321A604FF48053C4F202031B6803F400CC
S31808003247333B607B6801337B603B68002B03D17B68B3F579
S3180800325AA06FEDD14FF48053C4F202031B6803F400330008
S3180800326D2B02D001233B6001E000233B603B68012B40F0E6
S3180800328094804FF40053C4F202034FF40052C4F202021267
S318080032936842F010021A604FF40053C4F202034FF400520E
S318080032A6C4F20202126822F003021A604FF40053C4F202F4
S318080032B9034FF40052C4F20202126842F002021A604FF435
S318080032CC8053C4F202034FF48052C4F2020252685A604FC1
S318080032DFF48053C4F202034FF48052C4F2020252685A6009
S318080032F24FF48053C4F202034FF48052C4F202025268421F
S31808003305F480625A604FF48053C4F202034FF48052C4F27B
S318080033180202526822F47C125A604FF48053C4F202034F58
S3180800332BF48052C4F20202526842F4E8125A604FF4805347
S3180800333EC4F202034FF48052C4F20202126842F080721A2C
S318080033516000BF4FF48053C4F202031B6803F00073002B57
S31808003364F6D04FF48053C4F202034FF48052C4F202025290
S318080033776822F003025A604FF48053C4F202034FF4805216
S3180800338AC4F20202526842F002025A6000BF4FF48053C425
S3180800339DF202035B6803F00C03082BF6D10C37BD465DF8BE
S318080033B0047B704718340008D0010020F8010020F801006F
S318080033C320FC010020002100F004B80C4B5B58435004310D
S318080033D60B480B4B42189A42FFF4F6AF0A4A00F003B80060
S318080033E92342F8043B084B9A42FFF4F9AFFFF71DFEFCF759
S318080033FC23FF704718340008D0010020F8010020F8010080
S30E0800340F20FC010020FFF7FEBFB6
S318080034180000000001020304010203040607080902040655
S3180800342B0800A24A04000000000000000001020304060771
S3070800343E08096D
S70508000245AB
